45861448003001620GH PNWWLA 0610016200087393400223100006ALOHA SHOYU TERIYAKI SAUCE    ALOHA TERIYAKI SC    24 OZ   24.00OZ02       1000182902017122300024302017112520171229000000000000000000000000000000000000000000000000000000000000000000000000000000000000000000000000000000000000000000NPN 3986305460054608       NN20171209 N00006000182900002430201711252017122900000000000000000000000000000000000000000000000000000000000000000000000000000000000000000000000000000000100005790+47400T2017111120171229000000000000000000000000000000000+00000000000000N    2SF                 1324R00000000000+000001320R00000000000+000000000 00000000000 000000000 00000000000 000000000 00000000000 000000000 00000000000 000000000 00000000000 000000000 00000000000 000000000 00000000000 000000000 00000000000 00000 0008739340022310001220000310093000630009100000000000000579  X
45861448003001630GH PNWWLA 0610016300087393400218700006ALOHA SHOYU BARBECUE SAUCE    ALOHA BARBC SAUCE    24 OZ   24.00OZ02       1000180802017122300024302017112520171229000000000000000000000000000000000000000000000000000000000000000000000000000000000000000000000000000000000000000000NPN 3982505460054614       NN20171209 N00006000180800002430201711252017122900000000000000000000000000000000000000000000000000000000000000000000000000000000000000000000000000000000100005790+48000T2017111120171229000000000000000000000000000000000+00000000000000N    2SF                 1324R00100007690+533811320R00000000000+000000000 00000000000 000000000 00000000000 000000000 00000000000 000000000 00000000000 000000000 00000000000 000000000 00000000000 000000000 00000000000 000000000 00000000000 00000 0008739340021870001200000310094000620009100000000000000579  X
45861448003007870GH PNWWLA 2810078700009370910100000006PAMELAS CKY PECAN SHORTBRD GF PAMELA PECAN SHRTB 7.25 OZ    7.25OZ02       1000154102017122300000000000000000000000000000000000000000000000000000000000000000000000000000000000000000000000000000000000000000000000000000000000000000N   00000037400374010303394NN20171209 N00006000154100000000000000000000000000203020171125201712220043583000000000000000000000000000000000000000000000000000000000000000000000000000100004490+42800D2017111120171222000000000000000000000000000000000+00000000000000N    2SF                 1324R00100004190+270491320R00100004390+303720000 00000000000 000000000 00000000000 000000000 00000000000 000000000 00000000000 000000000 00000000000 000000000 00000000000 000000000 00000000000 000000000 00000000000 00000 0100937091010070000385000300064000790010200000000000000449  X
45861448003010410GH PNWWLA 2810104100007349015216000050PROMISED LAND CHANUKAH CANDLE PROM CHANUKAH CAND   44 CT   44.00CT17       1000477002017122300000000000000000000000000000000000000000000000000000000000000000000000000000000000000000000000000000000000000000000000000000000000000000N   0000006700067004       NN20171209 N00050000477000000000000000000000000000000000000000000000000000000003850201710212017122200731370000000000000000000000000000000000000000000000100001850+48400D2017100720171222000000000000000000000000000000000+00000000000000N    2SF                 1324R00000000000+000001320R00000000000+000000000 00000000000 000000000 00000000000 000000000 00000000000 000000000 00000000000 000000000 00000000000 000000000 00000000000 000000000 00000000000 000000000 00000000000 00000 0000734901521600002100000670085000850016000000000000000185  X
45861448003020040GH PNWWLA 2810200400007349013187500012YEHUDA MATZO SQUARES GF       YEHUDA GF MTZO SQR 10.5 OZ   10.50OZ02       1000573002017122300000000000000000000000000000000000000000000000000000000000000000000000000000000000000000000000000000000000000000000000000000000000000000N   0000006700067010       NN20171209 N00012000573000000000000000000000000000000000000000000000000000000005010201710212017122200731370000000000000000000000000000000000000000000000100008190+41700D2017100720171222000000000000000000000000000000000+00000000000000N    2SF                 1324R00100009690+440061320R00100007990+320920000 00000000000 000000000 00000000000 000000000 00000000000 000000000 00000000000 000000000 00000000000 000000000 00000000000 000000000 00000000000 000000000 00000000000 00000 0000734901318750000850001050077001050022500000000000000819  X
45861448003022450GH PNWWLC 0810224500001862703000300012KASHI GRANOLA BAR TRAIL MIX   KASHI GRANOLA BAR   7.4 OZ    7.40OZ02       1000390802017122300000000000000000000000000000000000000000000000000000000000000000000000000000000000000000000000000000000000000000000000000000000000000000NAN 81623037800378010301505NN20171209 N00012000390800000000000000000000000000000000000000000000000000000000000000000000000000000000000000000000000000000000000000000000000000000000100004390+25800 0000000000000000000000000000000000000000000000000+00000000000000N    2SF                 1324R00100002990-287071320R00100004290+102950000 00000000000 000000000 00000000000 000000000 00000000000 000000000 00000000000 000000000 00000000000 000000000 00000000000 000000000 00000000000 000000000 00000000000 00000 0000186270300030000765000590064001160013700000000000000439  X
45861448003026340GH PNWWLA 2810263400007270000738200024MANISCH LENTIL SOUP MIX       MANIS LENTIL SP MX    6 OZ    6.00OZ02       1000272302017122300000000000000000000000000000000000000000000000000000000000000000000000000000000000000000000000000000000000000000000000000000000000000000N   00000067000670190302078NN20171209 N00024000272300000000000000000000000000460020171021201712220066494000000000000000000000000000000000000000000000000000000000000000000000000000100002150+47200D2017100720171222000000000000000000000000000000000+00000000000000N    2SF                 1324R00000000000+000001320R00000000000+000000000 00000000000 000000000 00000000000 000000000 00000000000 000000000 00000000000 000000000 00000000000 000000000 00000000000 000000000 00000000000 000000000 00000000000 00000 0000727000073820000955000270049000960009800000000000000215  X
45861448003026360GH PNWWLI 1000000000000827400700000024RDS ENRGY DRNK                RDS ENRGY DRNK    10.5OZ      0.00          24000280002017122300000000000000000000000000000000000000000000000000000000000000000000000000000000000000000000000000000000000000000000000000000000000000000N   0000003560035602         20171209 N00024000280000000000000000000000000000000000000000000000000000000000000000000000000000000000000000000000000000000000000000000000000000000000100002290+49100 0000000000000000000000000000000000000000000000000+00000000000000N                        1324R00100001690+184171320R00000000000+000000000 00000000000 000000000 00000000000 000000000 00000000000 000000000 00000000000 000000000 00000000000 000000000 00000000000 000000000 00000000000 000000000 00000000000 00000 0000000000000000000000000000000000000000000000000000000229  X
45861448003026420GH PNWWLA 2810264200007270010442500024MANISCH SOUP MX HEARTY BEAN   MANIS SP/MIX BEAN     6 OZ    6.00OZ02       1000272302017122300000000000000000000000000000000000000000000000000000000000000000000000000000000000000000000000000000000000000000000000000000000000000000N   00000067000670190302078NN20171209 N00024000272300000000000000000000000000460020171021201712220066494000000000000000000000000000000000000000000000000000000000000000000000000000100002150+47200D2017100720171222000000000000000000000000000000000+00000000000000N    2SF                 1324R00000000000+000001320R00000000000+000000000 00000000000 000000000 00000000000 000000000 00000000000 000000000 00000000000 000000000 00000000000 000000000 00000000000 000000000 00000000000 000000000 00000000000 00000 0000727001044250000970000310051001010010300000000000000215  X
45861448003026450GH PNWWLA 2810264500007270010188200012MANISCH CHICKEN BROTH         MANIS CHIX BROTH   10.5 OZ   10.50OZ02       1000158402017122300000000000000000000000000000000000000000000000000000000000000000000000000000000000000000000000000000000000000000000000000000000000000000N   0000006700067019       NN20171209 N00012000158400000000000000000000000000189020171021201712220066494000000000000000000000000000000000000000000000000000000000000000000000000000100002650+50200D2017100720171222000000000000000000000000000000000+00000000000000N    2SF                 1324R00000000000+000001320R00100002190+270930000 00000000000 000000000 00000000000 000000000 00000000000 000000000 00000000000 000000000 00000000000 000000000 00000000000 000000000 00000000000 000000000 00000000000 00000 0000727001018820000985000230044000820010900000000000000265  X
45861448003026490GH PNWWLA 2810264900007270010226100012MANISCH CHICKEN BROTH ASEPTIC MANIS CHX BRTH ASP   32 OZ   32.00OZ02       1000265402017122300000000000000000000000000000000000000000000000000000000000000000000000000000000000000000000000000000000000000000000000000000000000000000N   00000067000670190303382NN20171209 N00012000265400000000000000000000000000388020171021201712220066494000000000000000000000000000000000000000000000000000000000000000000000000000100004490+50700D2017100720171222000000000000000000000000000000000+00000000000000N    2SF                 1324R00100004790+441891320R00000000000+000000000 00000000000 000000000 00000000000 000000000 00000000000 000000000 00000000000 000000000 00000000000 000000000 00000000000 000000000 00000000000 000000000 00000000000 00000 0000727001022610002600000470070000750015500000000000000449  X
45861448003026630GH PNWWLA 2810266300007270010227800012MANISCH RED SOD CHCKN BRTH ASPMAN RS CHKN BR ASP   32 OZ   32.00OZ02       1000265402017122300000000000000000000000000000000000000000000000000000000000000000000000000000000000000000000000000000000000000000000000000000000000000000N   00000067000670190303382NN20171209 N00012000265400000000000000000000000000388020171021201712220066494000000000000000000000000000000000000000000000000000000000000000000000000000100004490+50700D2017100720171222000000000000000000000000000000000+00000000000000N    2SF                 1324R00100004790+441891320R00000000000+000000000 00000000000 000000000 00000000000 000000000 00000000000 000000000 00000000000 000000000 00000000000 000000000 00000000000 000000000 00000000000 000000000 00000000000 00000 0000727001022780002600000470070000750015500000000000000449  X
45861448003030230GH PNWWLI 1000000000003574222111000012HV CHX BR NS                  HV CHX BR NS      14.25Z      0.00          12000203302017122300000000000000000000000000000000000000000000000000000000000000000000000000000000000000000000000000000000000000000000000000000000000000000N   0000003700037004         20171209 N00012000203300000000000000000000000000000000000000000000000000000000000000000000000000000000000000000000000000000000000000000000000000000000100003650+53600 0000000000000000000000000000000000000000000000000+00000000000000N                        1324R00000000000+000001320R00000000000+000000000 00000000000 000000000 00000000000 000000000 00000000000 000000000 00000000000 000000000 00000000000 000000000 00000000000 000000000 00000000000 000000000 00000000000 00000 0000000000000000000000000000000000000000000000000000000365  X
45861448003036120GH PNWWLI 1000000000009034131100000006VRGLDT ROOTBER                VRGLDT ROOTBER    4/12Z       0.00           6000221102017122300000000000000000000000000000000000000000000000000000000000000000000000000000000000000000000000000000000000000000000000000000000000000000N   0000003560035605         20171209 N00006000210100000000000000000000000000000000000000000000000000000000000000000000000000000000000000000000000000000000000000000000000000000000100006390+45200 0000000000000000000000000000000000000000000000000+00000000000000N                        1324R00100004990+153971320R00000000000+000000000 00000000000 000000000 00000000000 000000000 00000000000 000000000 00000000000 000000000 00000000000 000000000 00000000000 000000000 00000000000 000000000 00000000000 00000 0000000000000000000000000000000000000000000000000000000672  X
45861448003039060GH PNWWLA 2510390600077000901048400024IF YOU CARE BAKING CUPS LARGE IYC BAK CUP LARGE    60 CT   60.00CT17       1000266902017122300000000000000000000000000000000000000000000000000000000000000000000000000000000000000000000000000000000000000000000000000000000000000000N   0000003800038010       NN20171209 N00024000266900002400201711252017122200000000000000000000000000000000000000000000000000000000000000000000000000000000000000000000000000000000100002290+51400D2017111120171222000000000000000000000000000000000+00000000000000N    2SF                 1324R00100001890+304891320R00000000000+000000000 00000000000 000000000 00000000000 000000000 00000000000 000000000 00000000000 000000000 00000000000 000000000 00000000000 000000000 00000000000 000000000 00000000000 00000 0007700090104840000235000410086000660012400000000000000229  X
45861448003041400GH PNWWLA 2510414000077000901020000012IF YOU CARE BAK PARCH 13X65   IYC PARCHMNT 13X65   70 FT   70.00FT05       1000420502017122300000000000000000000000000000000000000000000000000000000000000000000000000000000000000000000000000000000000000000000000000000000000000000N   0000003990039950       NN20171209 N00012000420500003600201711252017122200000000000000000000000000000000000000000000000000000000000000000000000000000000000000000000000000000000100006890+49100D2017111120171222000000000000000000000000000000000+00000000000000N    2SF                 1324R00100005990+314131320R00000000000+000000000 00000000000 000000000 00000000000 000000000 00000000000 000000000 00000000000 000000000 00000000000 000000000 00000000000 000000000 00000000000 000000000 00000000000 00000 0007700090102000000855000410144000630007800000000000000689  X
45861448003045190GH PNWWLA 2810451900007270006235000012MANISCH MATZO EVERYTHING      MANISCH MATZO        10 OZ   10.00OZ02       1000257902017122300000000000000000000000000000000000000000000000000000000000000000000000000000000000000000000000000000000000000000000000000000000000000000N   00000067000670100302425NN20171209 N00012000257900000000000000000000000000318020171021201712220066494000000000000000000000000000000000000000000000000000000000000000000000000000100003990+46100D2017100720171222000000000000000000000000000000000+00000000000000N    2SF                 1324R00000000000+000001320R00000000000+000000000 00000000000 000000000 00000000000 000000000 00000000000 000000000 00000000000 000000000 00000000000 000000000 00000000000 000000000 00000000000 000000000 00000000000 00000 0000727000623500001000000800068000950021500000000000000399  X
45861448003045790GH PNWWLA 2810457900007270000064200012MANISCH POTATO PANCAKE MIX    MANISCH POT PANCAK    6 OZ    6.00OZ02       1000246902017122300000000000000000000000000000000000000000000000000000000000000000000000000000000000000000000000000000000000000000000000000000000000000000N   00000067000670160300701NN20171209 N00012000246900000000000000000000000000640020171021201712220066494000000000000000000000000000000000000000000000000000000000000000000000000000100004490+54200D2017100720171222000000000000000000000000000000000+00000000000000N    2SF                 1324R00100004390+433371320R00100004390+433370000 00000000000 000000000 00000000000 000000000 00000000000 000000000 00000000000 000000000 00000000000 000000000 00000000000 000000000 00000000000 000000000 00000000000 00000 0000727000006420000595000320076000810009000000000000000449  X
45861448003048050GH PNWWLA 2810480500007513105017000024GOODMANS SOUP/DIP MX ONION    GDMN S/D MIX ONION 2.75 OZ    2.75OZ02       1000328102017122300000000000000000000000000000000000000000000000000000000000000000000000000000000000000000000000000000000000000000000000000000000000000000N   0000006700067019       NN20171209 N00024000328100000000000000000000000000999020171021201712220051088000000000000000000000000000000000000000000000000000000000000000000000000000100002750+50300D2017100720171222000000000000000000000000000000000+00000000000000N    2SF                 1324R00000000000+000001320R00000000000+000000000 00000000000 000000000 00000000000 000000000 00000000000 000000000 00000000000 000000000 00000000000 000000000 00000000000 000000000 00000000000 000000000 00000000000 00000 0000751310501700000700000590125000650012500000000000000275  X
45861448003052930GH PNWWLA 2810529300009370910070600006PAMELAS CKY CHNKY CHOC CHIP GFPEMALS CHNKY CHOC  7.25 OZ    7.25OZ02       1000154102017122300000000000000000000000000000000000000000000000000000000000000000000000000000000000000000000000000000000000000000000000000000000000000000N   00000037400374010303394NN20171209 N00006000154100000000000000000000000000203020171125201712220043583000000000000000000000000000000000000000000000000000000000000000000000000000100004490+42800D2017111120171222000000000000000000000000000000000+00000000000000N    2SF                 1324R00100004190+270491320R00000000000+000000000 00000000000 000000000 00000000000 000000000 00000000000 000000000 00000000000 000000000 00000000000 000000000 00000000000 000000000 00000000000 000000000 00000000000 00000 0100937091007030000385000370071000840010800000000000000449  X
45861448003056410GH PNWWLA 2810564100007030302299300012SEASONS CAVIAR BLACK CAPELIN  SEA BLK CAP CAVIAR  2.0 OZ    2.00OZ02       1000313102017122300000000000000000000000000000000000000000000000000000000000000000000000000000000000000000000000000000000000000000000000000000000000000000N   0000006700067015       NN20171209 N00012000313100000000000000000000000000415020171021201712220066494000000000000000000000000000000000000000000000000000000000000000000000000000100005390+51600D2017100720171222000000000000000000000000000000000+00000000000000N    2SF                 1324R00000000000+000001320R00000000000+000000000 00000000000 000000000 00000000000 000000000 00000000000 000000000 00000000000 000000000 00000000000 000000000 00000000000 000000000 00000000000 000000000 00000000000 00000 0000703030229930000410000110018000890011900000000000000539  X
45861448003062080GH PNWWLA 2810620800007270010406700012MANISCH EXT WIDE EGG NOODLES  MANISCH XTR WD EGG   12 OZ   12.00OZ02       1000194702017122300000000000000000000000000000000000000000000000000000000000000000000000000000000000000000000000000000000000000000000000000000000000000000N   00000067000670130301237NN20171209 N00012000194700000000000000000000000000384020171021201712220066494000000000000000000000000000000000000000000000000000000000000000000000000000100003890+58300D2017100720171222000000000000000000000000000000000+00000000000000N    2SF                 1324R00000000000+000001320R00000000000+000000000 00000000000 000000000 00000000000 000000000 00000000000 000000000 00000000000 000000000 00000000000 000000000 00000000000 000000000 00000000000 000000000 00000000000 00000 0000727001040670001030001090107001070016500000000000000389  X
45861448003062380GH PNWWLA 2810623800007349012882000006BARTENURA OLIVE OIL EXT VIRGINBAR EXTR VGN OLIVE16.09 OZ   16.09OZ02       1000463202017122300000000000000000000000000000000000000000000000000000000000000000000000000000000000000000000000000000000000000000000000000000000000000000N   0000006700067008       NN20171209 N00006000463200000000000000000000000000000000000000000000000000000002960201710212017122200731370000000000000000000000000000000000000000000000100014590+47100D2017100720171222000000000000000000000000000000000+00000000000000N    2SF                 1324R00000000000+000001320R00000000000+000000000 00000000000 000000000 00000000000 000000000 00000000000 000000000 00000000000 000000000 00000000000 000000000 00000000000 000000000 00000000000 000000000 00000000000 00000 0000734901288200001150000240102000530007700000000000001459  X
45861448003063450GH PNWWLA 2810634500007349015412600012REBECCA R FRUIT SLICES NATURALREB NAT FRT SLICE     6 OZ    6.00OZ02       1000384302017122300000000000000000000000000000000000000000000000000000000000000000000000000000000000000000000000000000000000000000000000000000000000000000N   0000006700067056       NN20171209 N00012000384300000000000000000000000000000000000000000000000000000003250201710212017122200731370000000000000000000000000000000000000000000000100005990+46500D2017100720171222000000000000000000000000000000000+00000000000000N    2SF                 1324R00000000000+000001320R00000000000+000000000 00000000000 000000000 00000000000 000000000 00000000000 000000000 00000000000 000000000 00000000000 000000000 00000000000 000000000 00000000000 000000000 00000000000 00000 0000734901541260000600000410040001100016000000000000000599  X
45861448003063520GH PNWWLA 2810635200008468590031200012778 PRESERVES STRAWBERRY      778 PRESRVS STRAWB   12 OZ   12.00OZ02       1000396002017122300000000000000000000000000000000000000000000000000000000000000000000000000000000000000000000000000000000000000000000000000000000000000000N   0000006700067008       NN20171209 Y00012000396000000000000000000000000000000000000000000000000000000004880201710212017122200731370000000000000000000000000000000000000000000000100005990+44900D2017100720171222000000000000000000000000000000000+00000000000000N    2G                  1324R00000000000+000001320R00000000000+000000000 00000000000 000000000 00000000000 000000000 00000000000 000000000 00000000000 000000000 00000000000 000000000 00000000000 000000000 00000000000 000000000 00000000000 00000 0000846859003120001645000250054000770010500000000000000599  X
45861448003064010GH PNWWLA 2810640100071006912890300012GEFEN HONEY BEAR              GEF HONEY BEAR       12 OZ   12.00OZ02       1000463302017122300000000000000000000000000000000000000000000000000000000000000000000000000000000000000000000000000000000000000000000000000000000000000000N   0000006700067008       NN20171209 N00012000463300000000000000000000000000000000000000000000000000000003980201710212017122200731370000000000000000000000000000000000000000000000100006650+41900D2017100720171222000000000000000000000000000000000+00000000000000N    2SF                 1324R00100007990+415831320R00100007990+415830000 00000000000 000000000 00000000000 000000000 00000000000 000000000 00000000000 000000000 00000000000 000000000 00000000000 000000000 00000000000 000000000 00000000000 00000 0007100691289030001020000330068000790010600000000000000665  X
45861448003064500GH PNWWLA 2810645000007349012424200012KEDEM TEA BISCUITS ORANGE     KED TEA BISC ORANG  4.2 OZ    4.20OZ02       1000062302017122300000000000000000000000000000000000000000000000000000000000000000000000000000000000000000000000000000000000000000000000000000000000000000N   00000067000670070303469NN20171209 N00012000062300000000000000000000000000000000000000000000000000000000490201710212017122200731370000000000000000000000000000000000000000000000100001150+54900 0000000000000000000000000000000000000000000000000+00000000000000N    2SF                 1324R00000000000+000001320R00000000000+000000000 00000000000 000000000 00000000000 000000000 00000000000 000000000 00000000000 000000000 00000000000 000000000 00000000000 000000000 00000000000 000000000 00000000000 00000 0000734901242420000350000240080000700007300000000000000115  X
45861448003064580GH PNWWLA 2810645800007349012383200012KEDEM TEA BISCUITS VANILLA    KEDEM BISCUIET VAN  4.2 OZ    4.20OZ02       1000062302017122300000000000000000000000000000000000000000000000000000000000000000000000000000000000000000000000000000000000000000000000000000000000000000N   00000067000670070303469NN20171209 N00012000062300000000000000000000000000000000000000000000000000000000490201710212017122200731370000000000000000000000000000000000000000000000100000990+47600 0000000000000000000000000000000000000000000000000+00000000000000N    2SF                 1324R00000000000+000001320R00100000990+366160000 00000000000 000000000 00000000000 000000000 00000000000 000000000 00000000000 000000000 00000000000 000000000 00000000000 000000000 00000000000 000000000 00000000000 00000 0000734901238320000350000240069000800007500000000000000099  X
45861448003064590GH PNWWLA 2810645900007349012384900012KEDEM TEA BISCUITS CHOCOLATE  KEDEM BISCUIT CHOC  4.2 OZ    4.20OZ02       1000062302017122300000000000000000000000000000000000000000000000000000000000000000000000000000000000000000000000000000000000000000000000000000000000000000N   00000067000670070303469NN20171209 N00012000062300000000000000000000000000000000000000000000000000000000490201710212017122200731370000000000000000000000000000000000000000000000100000990+47600 0000000000000000000000000000000000000000000000000+00000000000000N    2SF                 1324R00100000850+261761320R00000000000+000000000 00000000000 000000000 00000000000 000000000 00000000000 000000000 00000000000 000000000 00000000000 000000000 00000000000 000000000 00000000000 000000000 00000000000 00000 0000734901238490000360000160081000770004300000000000000099  X
45861448003064600GH PNWWLA 2810646000007349012350400012KEDEM TEA BISCUITS PLAIN      KEDEM BISCUIET PLN  4.2 OZ    4.20OZ02       1000062302017122300000000000000000000000000000000000000000000000000000000000000000000000000000000000000000000000000000000000000000000000000000000000000000N   00000067000670070303469NN20171209 N00012000062300000000000000000000000000000000000000000000000000000000490201710212017122200731370000000000000000000000000000000000000000000000100000990+47600 0000000000000000000000000000000000000000000000000+00000000000000N    2SF                 1324R00100000850+261761320R00100000990+366160000 00000000000 000000000 00000000000 000000000 00000000000 000000000 00000000000 000000000 00000000000 000000000 00000000000 000000000 00000000000 000000000 00000000000 00000 0000734901235040000360000290080000740008500000000000000099  X
45861448003068350GH PNWWLA 2810683500007349012512600006BARTENURA VINEGAR BALSAMIC    BAR BALSAMIC VINGA   17 OZ   17.00OZ02       1000331002017122300000000000000000000000000000000000000000000000000000000000000000000000000000000000000000000000000000000000000000000000000000000000000000N   0000006700067008       NN20171209 N00006000331000000000000000000000000000000000000000000000000000000002750201710212017122200731370000000000000000000000000000000000000000000000100011550+52200D2017100720171222000000000000000000000000000000000+00000000000000N    2SF                 1324R00000000000+000001320R00000000000+000000000 00000000000 000000000 00000000000 000000000 00000000000 000000000 00000000000 000000000 00000000000 000000000 00000000000 000000000 00000000000 000000000 00000000000 00000 0000734901251260001150000320102000900006000000000000001155  X
45861448003076100GH PNWWLA 2810761000074613200124800024ELITE MILK COINS MEGADIM      ELITE COIN MGADIM   .53 OZ    0.53OZ02       1000077602017122300000000000000000000000000000000000000000000000000000000000000000000000000000000000000000000000000000000000000000000000000000000000000000N   0000006700067017       NN20171209 N00024000077600000000000000000000000000000000000000000000000000000001590201710212017122200731370000000000000000000000000000000000000000000000100000590+45200D2017100720171222000000000000000000000000000000000+00000000000000N    2SF                 1324R00000000000+000001320R00000000000+000000000 00000000000 000000000 00000000000 000000000 00000000000 000000000 00000000000 000000000 00000000000 000000000 00000000000 000000000 00000000000 000000000 00000000000 00000 0007461320017430000091000050072000130008500000000000000059  X
45861448003078840GH PNWWLA 2810788400007270010245200012MANISCH YOLK FREE NOODLES FINEMANI YF NODLE FINE   12 OZ   12.00OZ02       1000194702017122300000000000000000000000000000000000000000000000000000000000000000000000000000000000000000000000000000000000000000000000000000000000000000N   00000067000670130301237NN20171209 N00012000194700000000000000000000000000384020171021201712220066494000000000000000000000000000000000000000000000000000000000000000000000000000100003890+58300D2017100720171222000000000000000000000000000000000+00000000000000N    2SF                 1324R00000000000+000001320R00000000000+000000000 00000000000 000000000 00000000000 000000000 00000000000 000000000 00000000000 000000000 00000000000 000000000 00000000000 000000000 00000000000 000000000 00000000000 00000 0000727001024520001055001190108001120017000000000000000389  X
45861448003078850GH PNWWLA 2810788500007270010403600012MANISCH EGG NOODLES FINE      MANI EGG NDLE FINE   12 OZ   12.00OZ02       1000194702017122300000000000000000000000000000000000000000000000000000000000000000000000000000000000000000000000000000000000000000000000000000000000000000N   00000067000670130301237NN20171209 N00012000194700000000000000000000000000384020171021201712220066494000000000000000000000000000000000000000000000000000000000000000000000000000100003890+58300D2017100720171222000000000000000000000000000000000+00000000000000N    2SF                 1324R00100003790+475591320R00100003790+475590000 00000000000 000000000 00000000000 000000000 00000000000 000000000 00000000000 000000000 00000000000 000000000 00000000000 000000000 00000000000 000000000 00000000000 00000 0000727001040360001030001220112001110016900000000000000389  X
45861448003078900GH PNWWLA 2810789000007270010404300012MANISCH EGG NOODLES MED       MANI EGG NDLE MED    12 OZ   12.00OZ02       1000194702017122300000000000000000000000000000000000000000000000000000000000000000000000000000000000000000000000000000000000000000000000000000000000000000N   00000067000670130301237NN20171209 N00012000194700000000000000000000000000384020171021201712220066494000000000000000000000000000000000000000000000000000000000000000000000000000100003890+58300D2017100720171222000000000000000000000000000000000+00000000000000N    2SF                 1324R00000000000+000001320R00000000000+000000000 00000000000 000000000 00000000000 000000000 00000000000 000000000 00000000000 000000000 00000000000 000000000 00000000000 000000000 00000000000 000000000 00000000000 00000 0000727001040430001030001050099001090016800000000000000389  X
45861448003079300GH PNWWLA 2810793000007270010405000012MANISCH EGG NOODLES WIDE      MANI EGG NDLE WIDE   12 OZ   12.00OZ02       1000194702017122300000000000000000000000000000000000000000000000000000000000000000000000000000000000000000000000000000000000000000000000000000000000000000N   00000067000670130301237NN20171209 N00012000194700000000000000000000000000384020171021201712220066494000000000000000000000000000000000000000000000000000000000000000000000000000100003890+58300D2017100720171222000000000000000000000000000000000+00000000000000N    2SF                 1324R00100003790+482411320R00100003790+482410000 00000000000 000000000 00000000000 000000000 00000000000 000000000 00000000000 000000000 00000000000 000000000 00000000000 000000000 00000000000 000000000 00000000000 00000 0000727001040500001050001170110001090016900000000000000389  X
45861448003081320GH PNWWLA 2810813200007270010128800012MANISCH CHIX SOUP MATZ BALL   MANISCH CHIX SP    10.5 OZ   10.50OZ02       1000184802017122300000000000000000000000000000000000000000000000000000000000000000000000000000000000000000000000000000000000000000000000000000000000000000N   0000006700067019       NN20171209 N00012000184800000000000000000000000000225020171021201712220066494000000000000000000000000000000000000000000000000000000000000000000000000000100002990+48500D2017100720171222000000000000000000000000000000000+00000000000000N    2SF                 1324R00100003290+433891320R00100002990+377090000 00000000000 000000000 00000000000 000000000 00000000000 000000000 00000000000 000000000 00000000000 000000000 00000000000 000000000 00000000000 000000000 00000000000 00000 0000727001012880001000000240045000830011000000000000000299  X
45861448003081350GH PNWWLA 2810813500007270010204900024MANISCH MINESTRONE SOUP MI    MANISCH MINESTRNE     6 OZ    6.00OZ02       1000272302017122300000000000000000000000000000000000000000000000000000000000000000000000000000000000000000000000000000000000000000000000000000000000000000N   00000067000670190302078NN20171209 N00024000272300000000000000000000000000460020171021201712220066494000000000000000000000000000000000000000000000000000000000000000000000000000100002150+47200D2017100720171222000000000000000000000000000000000+00000000000000N    2SF                 1324R00100002490+449131320R00100002090+343700000 00000000000 000000000 00000000000 000000000 00000000000 000000000 00000000000 000000000 00000000000 000000000 00000000000 000000000 00000000000 000000000 00000000000 00000 0000727001020490001010000320052001000010600000000000000215  X
45861448003081400GH PNWWLA 2810814000007270000016100012MANISCH MATZO REG UNSLTD      MANISCH MTZ UNSLT    10 OZ   10.00OZ02       1000257902017122300000000000000000000000000000000000000000000000000000000000000000000000000000000000000000000000000000000000000000000000000000000000000000N   00000067000670100302425NN20171209 N00012000257900000000000000000000000000318020171021201712220066494000000000000000000000000000000000000000000000000000000000000000000000000000100003990+46100D2017100720171222000000000000000000000000000000000+00000000000000N    2SF                 1324R00100003990+349001320R00100003990+349000000 00000000000 000000000 00000000000 000000000 00000000000 000000000 00000000000 000000000 00000000000 000000000 00000000000 000000000 00000000000 000000000 00000000000 00000 0000727000001610001000000930075001000021500000000000000399  X
45861448003081520GH PNWWLA 2810815200007270000049900012MANISCH MATZO EGG-ONION       MANISC MATZ EGG/ON   10 OZ   10.00OZ02       1000257902017122300000000000000000000000000000000000000000000000000000000000000000000000000000000000000000000000000000000000000000000000000000000000000000N   00000067000670100302425NN20171209 N00012000257900000000000000000000000000318020171021201712220066494000000000000000000000000000000000000000000000000000000000000000000000000000100003990+46100D2017100720171222000000000000000000000000000000000+00000000000000N    2SF                 1324R00000000000+000001320R00100003990+349000000 00000000000 000000000 00000000000 000000000 00000000000 000000000 00000000000 000000000 00000000000 000000000 00000000000 000000000 00000000000 000000000 00000000000 00000 0000727000004990001000000890075000950021500000000000000399  X
45861448003081580GH PNWWLA 2810815800007270000011600012MANISCH MATZO BALL SP MIX     MAN MTZO BALL SOUP  4.5 OZ    4.50OZ02       1000218502017122300000000000000000000000000000000000000000000000000000000000000000000000000000000000000000000000000000000000000000000000000000000000000000N   00000067000670190301862NN20171209 N00012000218500000000000000000000000000284020171021201712220066494000000000000000000000000000000000000000000000000000000000000000000000000000100003590+49300D2017100720171222000000000000000000000000000000000+00000000000000N    2SF                 1324R00100003480+391281320R00100003490+393030000 00000000000 000000000 00000000000 000000000 00000000000 000000000 00000000000 000000000 00000000000 000000000 00000000000 000000000 00000000000 000000000 00000000000 00000 0000727000001160000450000310064000630013100000000000000359  X
45861448003081950GH PNWWLA 2810819500007270010126400012MANISCH CK SOUP CLEAR         MANISC CK SP CLEAR 10.5 OZ   10.50OZ02       1000184802017122300000000000000000000000000000000000000000000000000000000000000000000000000000000000000000000000000000000000000000000000000000000000000000N   0000006700067019       NN20171209 N00012000184800000000000000000000000000225020171021201712220066494000000000000000000000000000000000000000000000000000000000000000000000000000100002990+48500D2017100720171222000000000000000000000000000000000+00000000000000N    2SF                 1324R00000000000+000001320R00100002990+377090000 00000000000 000000000 00000000000 000000000 00000000000 000000000 00000000000 000000000 00000000000 000000000 00000000000 000000000 00000000000 000000000 00000000000 00000 0000727001012640000965000240046000820010900000000000000299  X
45861448003082380GH PNWWLA 2810823800007270010200100024MANISCH VEGETABLE SOUP MIX    MANISCH VEG SP MX     6 OZ    6.00OZ02       1000272302017122300000000000000000000000000000000000000000000000000000000000000000000000000000000000000000000000000000000000000000000000000000000000000000N   00000067000670190302078NN20171209 N00024000272300000000000000000000000000460020171021201712220066494000000000000000000000000000000000000000000000000000000000000000000000000000100002150+47200D2017100720171222000000000000000000000000000000000+00000000000000N    2SF                 1324R00100002490+449131320R00100002090+343700000 00000000000 000000000 00000000000 000000000 00000000000 000000000 00000000000 000000000 00000000000 000000000 00000000000 000000000 00000000000 000000000 00000000000 00000 0000727001020010001010000310052000990010500000000000000215  X
45861448003082440GH PNWWLA 2810824400007270010201800024MANISCH SPLIT PEA SOUP MIX    MANISCH SPLIT PEA     6 OZ    6.00OZ02       1000272302017122300000000000000000000000000000000000000000000000000000000000000000000000000000000000000000000000000000000000000000000000000000000000000000N   00000067000670190302078NN20171209 N00024000272300000000000000000000000000460020171021201712220066494000000000000000000000000000000000000000000000000000000000000000000000000000100002150+47200D2017100720171222000000000000000000000000000000000+00000000000000N    2SF                 1324R00000000000+000001320R00100002090+343700000 00000000000 000000000 00000000000 000000000 00000000000 000000000 00000000000 000000000 00000000000 000000000 00000000000 000000000 00000000000 000000000 00000000000 00000 0000727001020180000985000270049000960009900000000000000215  X
45861448003082520GH PNWWLA 2810825200007022750181900012STREITS SOUP CHICKEN NOODLE BXSTR CHKN NOODLE BX    4 OZ    4.00OZ02       1000142502017122300000000000000000000000000000000000000000000000000000000000000000000000000000000000000000000000000000000000000000000000000000000000000000N   00000067000670190303106NN20171209 N00012000142500000000000000000000000000270020171021201712220009862000000000000000000000000000000000000000000000000000000000000000000000000000100001950+39100D2017100720171222000000000000000000000000000000000+00000000000000N    2SF                 1324R00000000000+000001320R00000000000+000000000 00000000000 000000000 00000000000 000000000 00000000000 000000000 00000000000 000000000 00000000000 000000000 00000000000 000000000 00000000000 000000000 00000000000 00000 0000702275018190000430000280097000520009500000000000000195  X
45861448003083430GH PNWWLA 2810834300007021624001900006FOX U BET SYRUP CHOCOLATE     FOX U BET CHOCOLAT   22 OZ   22.00OZ02       1000178502017122300000000000000000000000000000000000000000000000000000000000000000000000000000000000000000000000000000000000000000000000000000000000000000N   0000006700067003       NN20171209 N00006000178500000000000000000000000000000000000000000000000000000001280201710212017122200731370000000000000000000000000000000000000000000000100004350+31600D2017100720171222000000000000000000000000000000000+00000000000000N    2SF                 1324R00000000000+000001320R00000000000+000000000 00000000000 000000000 00000000000 000000000 00000000000 000000000 00000000000 000000000 00000000000 000000000 00000000000 000000000 00000000000 000000000 00000000000 00000 0000702162400190000825000290090000890006300000000000000435  X
45861448003084100GH PNWWLA 2810841000007042000809200010ROKEACH CHANUKAH CANDLES      RKCH CHANUKAH CAND   44 CT   44.00CT17       1000096102017122300000000000000000000000000000000000000000000000000000000000000000000000000000000000000000000000000000000000000000000000000000000000000000N   0000006700067004       NN20171209 N00010000096100000000000000000000000000158020171021201712220062871000000000000000000000000000000000000000000000000000000000000000000000000000100001850+48100D2017100720171222000000000000000000000000000000000+00000000000000N    2SF                 1324R00000000000+000001320R00000000000+000000000 00000000000 000000000 00000000000 000000000 00000000000 000000000 00000000000 000000000 00000000000 000000000 00000000000 000000000 00000000000 000000000 00000000000 00000 0000704200080920000460000120032000760008500000000000000185  X
45861448003084110GH PNWWLA 2810841100007349015293100012YEHUDA GEFILTE FISH           YHDL GFLT FISH ORG   24 OZ   24.00OZ02       1000551602017122300000000000000000000000000000000000000000000000000000000000000000000000000000000000000000000000000000000000000000000000000000000000000000N   0000006700067015       NN20171209 N00012000551600000000000000000000000000000000000000000000000000000004340201710212017122200731370000000000000000000000000000000000000000000000100008190+43900D2017100720171222000000000000000000000000000000000+00000000000000N    2SF                 1324R00100009490+449601320R00100007990+346270000 00000000000 000000000 00000000000 000000000 00000000000 000000000 00000000000 000000000 00000000000 000000000 00000000000 000000000 00000000000 000000000 00000000000 00000 0000734901529310002740000620070001100014000000000000000819  X
45861448003084120GH PNWWLA 2810841200007349015292400012YEHUDA GEFILTE FISH SWEET STYLYHDL GFLT FISH SWT   24 OZ   24.00OZ02       1000551602017122300000000000000000000000000000000000000000000000000000000000000000000000000000000000000000000000000000000000000000000000000000000000000000N   0000006700067015       NN20171209 N00012000551600000000000000000000000000000000000000000000000000000004340201710212017122200731370000000000000000000000000000000000000000000000100008190+43900D2017100720171222000000000000000000000000000000000+00000000000000N    2SF                 1324R00100009490+449601320R00100007990+346270000 00000000000 000000000 00000000000 000000000 00000000000 000000000 00000000000 000000000 00000000000 000000000 00000000000 000000000 00000000000 000000000 00000000000 00000 0000734901529240002740000620064001130014700000000000000819  X
45861448003084180GH PNWWLA 2810841800007270020038700024MANISCH MAGIC MAX DRK CHO COIN032MM DRK CHO COIN  .53 OZ    0.53OZ02       1000079102017122300000000000000000000000000000000000000000000000000000000000000000000000000000000000000000000000000000000000000000000000000000000000000000N   0000006700067017       NN20171209 N00024000079100000000000000000000000000141020171021201712220051088000000000000000000000000000000000000000000000000000000000000000000000000000100000590+44100D2017100720171222000000000000000000000000000000000+00000000000000N    0SF                 1324R00000000000+000001320R00000000000+000000000 00000000000 000000000 00000000000 000000000 00000000000 000000000 00000000000 000000000 00000000000 000000000 00000000000 000000000 00000000000 000000000 00000000000 00000 0100727002003220000079000020021000350003800000000000000059  X
45861448003084270GH PNWWLA 2810842700007270000791700012MANISCH SHABBAT CANDLES       MANI SHABBAT CNDLE   12 CT   12.00CT17       1000137702017122300000000000000000000000000000000000000000000000000000000000000000000000000000000000000000000000000000000000000000000000000000000000000000N   0000006700067004       NN20171209 N00012000137700000000000000000000000000112020171021201712220065165000000000000000000000000000000000000000000000000000000000000000000000000000100001990+42300D2017100720171222000000000000000000000000000000000+00000000000000N    0SF                 1324R00000000000+000001320R00000000000+000000000 00000000000 000000000 00000000000 000000000 00000000000 000000000 00000000000 000000000 00000000000 000000000 00000000000 000000000 00000000000 000000000 00000000000 00000 0000727000079170000720000260036000950013200000000000000199  X
45861448003084340GH PNWWLA 2810843400007270020039400024MANISCH MAGIC MAX MLK CHO COIN031MM MLK CHO COIN  .53 OZ    0.53OZ02       1000079102017122300000000000000000000000000000000000000000000000000000000000000000000000000000000000000000000000000000000000000000000000000000000000000000N   0000006700067017       NN20171209 N00024000079100000000000000000000000000141020171021201712220051088000000000000000000000000000000000000000000000000000000000000000000000000000100000590+44100D2017100720171222000000000000000000000000000000000+00000000000000N    2SF                 1324R00000000000+000001320R00000000000+000000000 00000000000 000000000 00000000000 000000000 00000000000 000000000 00000000000 000000000 00000000000 000000000 00000000000 000000000 00000000000 000000000 00000000000 00000 0100727002003150000079000040018000530006800000000000000059  X
45861448003085130GH PNWWLA 2810851300008468600007300012TELMA CUBES CHICKEN CONSOMME  KNR TLMA CHKN SOUP    3 CT    3.00CT17       1000081102017122300000000000000000000000000000000000000000000000000000000000000000000000000000000000000000000000000000000000000000000000000000000000000000N   00000067000670190302874NN20171209 N00012000081100000000000000000000000000000000000000000000000000000000720201710212017122200731370000000000000000000000000000000000000000000000100001350+49900D2017100720171222000000000000000000000000000000000+00000000000000N    2SF                 1324R00100001390+412471320R00100001290+366930000 00000000000 000000000 00000000000 000000000 00000000000 000000000 00000000000 000000000 00000000000 000000000 00000000000 000000000 00000000000 000000000 00000000000 00000 0100846860000700000125000040036000500003400000000000000135  X
45861448003087150GH PNWWLA 2810871500007270000007900012MANISCH MATZO BALL MIX        MANISC MTZ BALL MX    5 OZ    5.00OZ02       1000218502017122300000000000000000000000000000000000000000000000000000000000000000000000000000000000000000000000000000000000000000000000000000000000000000N   00000067000670190301862NN20171209 N00012000218500000000000000000000000000284020171021201712220062871000000000000000000000000000000000000000000000000000000000000000000000000000100003590+49300D2017100720171222000000000000000000000000000000000+00000000000000N    2SF                 1324R00100003480+391281320R00100003490+393030000 00000000000 000000000 00000000000 000000000 00000000000 000000000 00000000000 000000000 00000000000 000000000 00000000000 000000000 00000000000 000000000 00000000000 00000 0000727000000790000480000310064000630013300000000000000359  X
45861448003087480GH PNWWLA 2810874800007270000002400012MANISCH MATZO THIN SALT       MANISC MATZ THIN S   10 OZ   10.00OZ02       1000257902017122300000000000000000000000000000000000000000000000000000000000000000000000000000000000000000000000000000000000000000000000000000000000000000N   00000067000670100302425NN20171209 N00012000257900000000000000000000000000318020171021201712220066494000000000000000000000000000000000000000000000000000000000000000000000000000100003990+46100D2017100720171222000000000000000000000000000000000+00000000000000N    2SF                 1324R00100003990+349001320R00100003990+349000000 00000000000 000000000 00000000000 000000000 00000000000 000000000 00000000000 000000000 00000000000 000000000 00000000000 000000000 00000000000 000000000 00000000000 00000 0000727000000240001000000910075001000021000000000000000399  X
45861448003087880GH PNWWLA 2810878800007270010181300012MANISCH MATZO BALL SOUP JA    MANISC MATZ BAL SP   24 OZ   24.00OZ02       1000417202017122300000000000000000000000000000000000000000000000000000000000000000000000000000000000000000000000000000000000000000000000000000000000000000N   0000006700067019       NN20171209 N00012000417200000000000000000000000000487020171021201712220066494000000000000000000000000000000000000000000000000000000000000000000000000000100007950+56300D2017100720171222000000000000000000000000000000000+00000000000000N    2SF                 1324R00100007190+415391320R00100008790+521810000 00000000000 000000000 00000000000 000000000 00000000000 000000000 00000000000 000000000 00000000000 000000000 00000000000 000000000 00000000000 000000000 00000000000 00000 0000727001018130002850000690072001120014700000000000000795  X
45861448003087910GH PNWWLA 2810879100007270010180600006MANISCH MATZO BALLS/BROTH JAR MATZ BALL/BRTH JAR   24 OZ   24.00OZ02       1000231002017122300000000000000000000000000000000000000000000000000000000000000000000000000000000000000000000000000000000000000000000000000000000000000000N   0000006700067019       NN20171209 N00006000231000000000000000000000000000275020171021201712220066494000000000000000000000000000000000000000000000000000000000000000000000000000100006990+44900D2017100720171222000000000000000000000000000000000+00000000000000N    2SF                 1324R00100007990+417401320R00100006990+334050000 00000000000 000000000 00000000000 000000000 00000000000 000000000 00000000000 000000000 00000000000 000000000 00000000000 000000000 00000000000 000000000 00000000000 00000 0000727001018060001500000320070001100007200000000000000699  X
45861448003088360GH PNWWLA 2810883600007022750066900012STREITS MATZO BALL MIX GF     STREITX MATZO GF    4.5 OZ    4.50OZ02       1000173802017122300000000000000000000000000000000000000000000000000000000000000000000000000000000000000000000000000000000000000000000000000000000000000000N   0000006700067011       NN20171209 N00012000173800000000000000000000000000450020171021201712220009862000000000000000000000000000000000000000000000000000000000000000000000000000100002950+50900D2017100720171222000000000000000000000000000000000+00000000000000N    2SF                 1324R00000000000+000001320R00100002890+393890000 00000000000 000000000 00000000000 000000000 00000000000 000000000 00000000000 000000000 00000000000 000000000 00000000000 000000000 00000000000 000000000 00000000000 00000 0000702275006690000400000270062000610012100000000000000295  X
45861448003088590GH PNWWLA 2810885900007022750067600012STREITS MATZO BALL/SOUP MIX GFST MTZO BAL/SP GF   4.5 OZ    4.50OZ02       1000173802017122300000000000000000000000000000000000000000000000000000000000000000000000000000000000000000000000000000000000000000000000000000000000000000N   0000006700067011       NN20171209 N00012000173800000000000000000000000000450020171021201712220077985000000000000000000000000000000000000000000000000000000000000000000000000000100002950+50900D2017100720171222000000000000000000000000000000000+00000000000000N    2SF                 1324R00100003590+512071320R00000000000+000000000 00000000000 000000000 00000000000 000000000 00000000000 000000000 00000000000 000000000 00000000000 000000000 00000000000 000000000 00000000000 000000000 00000000000 00000 0000702275006760000400000270062000610012100000000000000295  X
45861448003088700GH PNWWLA 2810887000008468500005000012TELMA CUBES BEEF              KNORR TELMA BF CB     3 CT    3.00CT17       1000081102017122300000000000000000000000000000000000000000000000000000000000000000000000000000000000000000000000000000000000000000000000000000000000000000N   00000067000670190302874NN20171209 N00012000081100000000000000000000000000000000000000000000000000000000720201710212017122200731370000000000000000000000000000000000000000000000100001350+49900D2017100720171222000000000000000000000000000000000+00000000000000N    2SF                 1324R00000000000+000001320R00000000000+000000000 00000000000 000000000 00000000000 000000000 00000000000 000000000 00000000000 000000000 00000000000 000000000 00000000000 000000000 00000000000 000000000 00000000000 00000 0000846850000500000130000040037000510003600000000000000135  X
45861448003095260GH PNWWLA 2810952600074613200125500024ELITE CANDY COIN MEGADM DK CHOMEGADM DK CHO COIN  .53 OZ    0.53OZ02       1000077602017122300000000000000000000000000000000000000000000000000000000000000000000000000000000000000000000000000000000000000000000000000000000000000000N   0000006700067019       NN20171209 N00024000077600000000000000000000000000000000000000000000000000000001590201710212017122200731370000000000000000000000000000000000000000000000100000670+51700D2017100720171222000000000000000000000000000000000+00000000000000N    2SF                 1324R00000000000+000001320R00000000000+000000000 00000000000 000000000 00000000000 000000000 00000000000 000000000 00000000000 000000000 00000000000 000000000 00000000000 000000000 00000000000 000000000 00000000000 00000 0007461320017360000091000040010000100001000000000000000067  X
45861448003104370GH PNWWLI 1000000000003997802509000004BRM CAROB POWDR               BRM CAROB POWDR   18 OZ       0.00           4000107202017122300000000000000000000000000000000000000000000000000000000000000000000000000000000000000000000000000000000000000000000000000000000000000000N   0000003800038001         20171209 N00004000107200000000000000000000000000000000000000000000000000000000000000000000000000000000000000000000000000000000000000000000000000000000100005290+49300 0000000000000000000000000000000000000000000000000+00000000000000N                        1324R00000000000+000001320R00000000000+000000000 00000000000 000000000 00000000000 000000000 00000000000 000000000 00000000000 000000000 00000000000 000000000 00000000000 000000000 00000000000 000000000 00000000000 00000 0000000000000000000000000000000000000000000000000000000529  X
45861448003104590GH PNWWLI 1000000000007577931116000006FC DEMERARA BAG               FC DEMERARA BAG   2 LB        0.00           6000173002017122300000000000000000000000000000000000000000000000000000000000000000000000000000000000000000000000000000000000000000000000000000000000000000N   0000003800038006         20171209 N00006000173000000000000000000000000000000000000000000000000000000000000000000000000000000000000000000000000000000000000000000000000000000000100004590+37200 0000000000000000000000000000000000000000000000000+00000000000000N                        1324R00000000000+000001320R00100004490+270600000 00000000000 000000000 00000000000 000000000 00000000000 000000000 00000000000 000000000 00000000000 000000000 00000000000 000000000 00000000000 000000000 00000000000 00000 0000000000000000000000000000000000000000000000000000000459  X
45861448003110090GH PNWWLA 2811100900003534281003100012BELLA SUN TOMATO SD HALVES    BEL HALVES SD TOM     3 OZ    3.00OZ02       1000200202017122300000000000000000000000000000000000000000000000000000000000000000000000000000000000000000000000000000000000000000000000000000000000000000N   0000006120061216       NN20171209 N00012000200200000000000000000000000000180020171118201712220013619000000000000000000000000000000000000000000000000000000000000000000000000000100003450+51600D2017110420171222000000000000000000000000000000000+00000000000000N    2SF                 1324R00000000000+000001320R00000000000+000000000 00000000000 000000000 00000000000 000000000 00000000000 000000000 00000000000 000000000 00000000000 000000000 00000000000 000000000 00000000000 000000000 00000000000 00000 0100353428100380000303000350095000800008000000000000000345  X
45861448003111360GH PNWWLA 2811113600078696901005100012NAPA VAL OIL OLIVE EX VIRG ORGNV ORG OLIVE OIL   25.4 OZ   25.40OZ02       1001029102017122300000000000000000000000000000000000000000000000000000000000000000000000000000000000000000000000000000000000000000000000000000000000000000N   0000003620036201       NN20171209 N00012001029100000000000000000000000001323020171125201712220075344000000000000000000000000000000000000000000000000000000000000000000000000000100015290+43900D2017111120171222000000000000000000000000000000000+00000000000000N    2SF                 1324R00100013990+332981320R00100015990+416410000 00000000000 000000000 00000000000 000000000 00000000000 000000000 00000000000 000000000 00000000000 000000000 00000000000 000000000 00000000000 000000000 00000000000 00000 0007869690100510003450000980130001000013000000000020001529  X
45861448003111690GH PNWWLA 2811116900001360002001900012DIAMOND CRYSTAL SALT KOSHER   DMND CRYS KSHR SLT    3 LB    3.00LB01       1000243902017122300000000000000000000000000000000000000000000000000000000000000000000000000000000000000000000000000000000000000000000000000000000000000000N   0000006520065202       NN20171209 N00012000243900000000000000000000000000240020171021201712220099405000000000000000000000000000000000000000000000000000000000000000000000000000100003990+49100D2017100720171222000000000000000000000000000000000+00000000000000N    2SF                 1324R00000000000+000001320R00100003890+356260000 00000000000 000000000 00000000000 000000000 00000000000 000000000 00000000000 000000000 00000000000 000000000 00000000000 000000000 00000000000 000000000 00000000000 00000 0000136000200190003960001110097001210016400000000000000399  X
45861448003114490GH PNWWLA 2811144900007349013259900012YEHUDA MATZO UNSALTED GF      YEH MATZO UNSLT GF 10.5 OZ   10.50OZ02       1000574202017122300000000000000000000000000000000000000000000000000000000000000000000000000000000000000000000000000000000000000000000000000000000000000000N   0000006700067010       NN20171209 N00012000574200000000000000000000000000000000000000000000000000000005010201710212017122200731370000000000000000000000000000000000000000000000100008690+44900D2017100720171222000000000000000000000000000000000+00000000000000N    2SF                 1324R00000000000+000001320R00000000000+000000000 00000000000 000000000 00000000000 000000000 00000000000 000000000 00000000000 000000000 00000000000 000000000 00000000000 000000000 00000000000 000000000 00000000000 00000 0000734901325990000900001150080001100022500000000000000869  X
45861448003119430GH PNWWLA 2811194300071006901101400012GEFEN BEETS RED VACUUM PACKED GEF BEETS VAC PAC  17.6 OZ   17.60OZ02       1000299602017122300000000000000000000000000000000000000000000000000000000000000000000000000000000000000000000000000000000000000000000000000000000000000000N   0000006700067020       NN20171209 N00012000299600000000000000000000000000000000000000000000000000000002380201710212017122200731370000000000000000000000000000000000000000000000100004550+45100D2017100720171222000000000000000000000000000000000+00000000000000N    2SF                 1324R00000000000+000001320R00000000000+000000000 00000000000 000000000 00000000000 000000000 00000000000 000000000 00000000000 000000000 00000000000 000000000 00000000000 000000000 00000000000 000000000 00000000000 00000 0007100690110140001500000550082000920012500000000000000455  X
45861448003125980GH PNWWLA 2811259800007754478930200012OSEM WAFERS CHOCOLATE         OSEM WAFERS CHOCLT  8.8 OZ    8.80OZ02       1000140902017122300000000000000000000000000000000000000000000000000000000000000000000000000000000000000000000000000000000000000000000000000000000000000000N   0000006700067007       NN20171209 N00012000140900000000000000000000000000000000000000000000000000000002260201710212017122200520560000000000000000000000000000000000000000000000100002350+50000D2017100720171222000000000000000000000000000000000+00000000000000N    2SF                 1324R00000000000+000001320R00000000000+000000000 00000000000 000000000 00000000000 000000000 00000000000 000000000 00000000000 000000000 00000000000 000000000 00000000000 000000000 00000000000 000000000 00000000000 00000 0000775447893020000735000340051000940012300000000000000235  X
45861448003126570GH PNWWLA 2811265700007754452740900012OSEM CONSOMME SOUP MIX        OSEM CNSME SOUP MX 14.1 OZ   14.10OZ02       1000439202017122300000000000000000000000000000000000000000000000000000000000000000000000000000000000000000000000000000000000000000000000000000000000000000N   0000006700067019       NN20171209 N00012000439200000000000000000000000000000000000000000000000000000007440201710212017122200520560000000000000000000000000000000000000000000000100006650+45000D2017100720171222000000000000000000000000000000000+00000000000000N    2SF                 1324R00100006490+318311320R00100006490+318310000 00000000000 000000000 00000000000 000000000 00000000000 000000000 00000000000 000000000 00000000000 000000000 00000000000 000000000 00000000000 000000000 00000000000 00000 0000775445274090001305000600065001010015700000000000000665  X
45861448003127050GH PNWWLA 2811270500007693720023300012OSEM ISRAELI COUSCOUS         OSEM ISRAELI COUSC  8.8 OZ    8.80OZ02       1000188502017122300000000000000000000000000000000000000000000000000000000000000000000000000000000000000000000000000000000000000000000000000000000000000000N   0000006700067013       NN20171209 N00012000188500000000000000000000000000000000000000000000000000000003120201710212017122200520560000000000000000000000000000000000000000000000100003250+51700D2017100720171222000000000000000000000000000000000+00000000000000N    2SF                 1324R00100003390+440021320R00000000000+000000000 00000000000 000000000 00000000000 000000000 00000000000 000000000 00000000000 000000000 00000000000 000000000 00000000000 000000000 00000000000 000000000 00000000000 00000 0000769372002330000730000430069000730014800000000000000325  X
45861448003128110GH PNWWLA 2811281100007693700280600006OSEM MEDITRN CUCUMBER SIZE 7-9OSEM MED CUCUMBERS   19 OZ   19.00OZ02       1000092002017122300000000000000000000000000000000000000000000000000000000000000000000000000000000000000000000000000000000000000000000000000000000000000000N   0000006700067008       NN20171209 N00006000092000000000000000000000000000000000000000000000000000000001320201710212017122200520560000000000000000000000000000000000000000000000100002550+39900D2017100720171222000000000000000000000000000000000+00000000000000N    2SF                 1324R00100003490+469441320R00100002490+256360000 00000000000 000000000 00000000000 000000000 00000000000 000000000 00000000000 000000000 00000000000 000000000 00000000000 000000000 00000000000 000000000 00000000000 00000 0000769370028060000840000190048001030006600000000000000255  X
45861448003128120GH PNWWLA 2811281200007693700285100006OSEM OLIVES MEDITRN MANZANILLAOSEM OLV MED MANZA 19.7 OZ   19.70OZ02       1000138202017122300000000000000000000000000000000000000000000000000000000000000000000000000000000000000000000000000000000000000000000000000000000000000000N   0000006700067008       NN20171209 N00006000138200000000000000000000000000000000000000000000000000000002640201710212017122200547510000000000000000000000000000000000000000000000100003690+37600D2017100720171222000000000000000000000000000000000+00000000000000N    2SF                 1324R00000000000+000001320R00000000000+000000000 00000000000 000000000 00000000000 000000000 00000000000 000000000 00000000000 000000000 00000000000 000000000 00000000000 000000000 00000000000 000000000 00000000000 00000 0000769370028510000840000180046001000006800000000000000369  X
45861448003131080GH PNWWLA 2511310800004364651018200012MAILLE MUST ORG DIJON SQZE BTLMAI ORG DJ SQZ BTL  9.7 OZ    9.70OZ02       1000309202017122300000000000000000000000000000000000000000000000000000000000000000000000000000000000000000000000000000000000000000000000000000000000000000N   0000006140061411       NN20171209 N00012000309200002520201711252017122200000000000000000000000000000000000000000000000000000000000000000000000000000000000000000000000000000000100004990+48400D2017111120171222000000000000000000000000000000000+00000000000000N    2SF                 1324R00000000000+000001320R00000000000+000000000 00000000000 000000000 00000000000 000000000 00000000000 000000000 00000000000 000000000 00000000000 000000000 00000000000 000000000 00000000000 000000000 00000000000 00000 0000436465101820000840000320065000700012000000000000000499  X
45861448003131550GH PNWWLA 2511315500007639700407500024LA COSTENA PEPPERS CHIPOLTE   LA COS CHIPTL PEPP    7 OZ    7.00OZ02       1000331102017122300000000000000000000000000000000000000000000000000000000000000000000000000000000000000000000000000000000000000000000000000000000000000000N   0000004140041401       NN20171209 N00024000331100003000201710282017122200000000000000000000000000000002880201710282017122200914330000000000000000000000000000000000000000000000100001990+30700D2017102120171222000000000000000000000000000000000+00000000000000N    2HP                 1324R00100001290-161821320R00100001990+246860000 00000000000 000000000 00000000000 000000000 00000000000 000000000 00000000000 000000000 00000000000 000000000 00000000000 000000000 00000000000 000000000 00000000000 00000 0000763970040750001320000340034001070016200000000000000199  X
45861448003133340GH PNWWLA 2511333400007639703001200012LA COSTENA SAUCE HOMESTYLE MEXLACOS HMSTY MEX SC   16 OZ   16.00OZ02       1000217802017122300000000000000000000000000000000000000000000000000000000000000000000000000000000000000000000000000000000000000000000000000000000000000000N   00000042400424040302842NN20171209 N00012000217800001920201710282017122200000000000000000000000000000000000000000000000000000000000000000000000000000000000000000000000000000000100002990+39300D2017101420171222000000000000000000000000000000000+00000000000000N    2HP                 1324R00000000000+000001320R00000000000+000000000 00000000000 000000000 00000000000 000000000 00000000000 000000000 00000000000 000000000 00000000000 000000000 00000000000 000000000 00000000000 000000000 00000000000 00000 0000763970300120001925000400081000790010900000000020000299  X
45861448003152030GH PNWWLA 2811520300088937912503900006RED FORK SAUCE SLOPPY JOE     RF MT SCE SLPY JO     8 OZ    8.00OZ02       1000093102017122300000000000000000000000000000000000000000000000000000000000000000000000000000000000000000000000000000000000000000000000000000000000000000N   00000061000610160308013NN20171209 N00006000093100000000000000000000000000120020171125201712220086200000000000000000000000000000000000000000000000000000000000000000000000000000100002850+45600D2017111120171222000000000000000000000000000000000+00000000000000N    2SF                 1324R00100002990+395761320R00000000000+000000000 00000000000 000000000 00000000000 000000000 00000000000 000000000 00000000000 000000000 00000000000 000000000 00000000000 000000000 00000000000 000000000 00000000000 00000 0108893791250360000345000170065000470009800000000000000285  X
45861448003152870GH PNWWLA 2811528700007341619774900006LUNDB RICE WHITELONG ORG      LB WHTE RC LNG GRN    2 LB   32.00OZ02       1000223202017122300000000000000000000000000000000000000000000000000000000000000000000000000000000000000000000000000000000000000000000000000000000000000000N   0000003730037302       NN20171209 N00006000223200000000000000000000000000297020171125201712220030699000000000000000000000000000000000000000000000000000000000000000000000000000100006790+45200D2017111120171222000000000000000000000000000000000+00000000000000N    2SF                 1324R00000000000+000001320R00000000000+000000000 00000000000 000000000 00000000000 000000000 00000000000 000000000 00000000000 000000000 00000000000 000000000 00000000000 000000000 00000000000 000000000 00000000000 00000 0000734161977490001300000330067001020008300000000000000679  X
45861448003153220GH PNWWLA 2811532200007341640204100006LUNDB RICE BASMATI WHITE ORG  LD OR RC BSMT WHTE    2 LB   32.00OZ02       1000271402017122300000000000000000000000000000000000000000000000000000000000000000000000000000000000000000000000000000000000000000000000000000000000000000N   0000003730037302       NN20171209 N00006000271400000000000000000000000000363020171125201712220030699000000000000000000000000000000000000000000000000000000000000000000000000000100008190+44800D2017111120171222000000000000000000000000000000000+00000000000000N    2SF                 1324R00100006790+218951320R00100007990+336250000 00000000000 000000000 00000000000 000000000 00000000000 000000000 00000000000 000000000 00000000000 000000000 00000000000 000000000 00000000000 000000000 00000000000 00000 0000734164020410001300000360060000950011000000000000000819  X
45861448003153230GH PNWWLA 2811532300007341640153200006LUNDB RICE BASMATI WHITE      LNDBRG BSMTI WH RC    2 LB   32.00OZ02       1000199502017122300000000000000000000000000000000000000000000000000000000000000000000000000000000000000000000000000000000000000000000000000000000000000000N   0000003730037302       NN20171209 N00006000199500000000000000000000000000265020171125201712220030699000000000000000000000000000000000000000000000000000000000000000000000000000100006650+50000D2017111120171222000000000000000000000000000000000+00000000000000N    2SF                 1324R00100005590+302921320R00100006490+399590000 00000000000 000000000 00000000000 000000000 00000000000 000000000 00000000000 000000000 00000000000 000000000 00000000000 000000000 00000000000 000000000 00000000000 00000 0000734164015320001300000330067001020008300000000000000665  X
45861448003153430GH PNWWLA 2811534300007341640152500006LUNDB RICE BASMATI BROWN      LUNDB BSMTI BR RCE    2 LB   32.00OZ02       1000181602017122300000000000000000000000000000000000000000000000000000000000000000000000000000000000000000000000000000000000000000000000000000000000000000N   0000003730037302       NN20171209 N00006000181600000000000000000000000000240020171125201712220030699000000000000000000000000000000000000000000000000000000000000000000000000000100006450+53100D2017111120171222000000000000000000000000000000000+00000000000000N    2SF                 1324R00100005490+353671320R00100006290+435880000 00000000000 000000000 00000000000 000000000 00000000000 000000000 00000000000 000000000 00000000000 000000000 00000000000 000000000 00000000000 000000000 00000000000 00000 0000734164015250001300000330067001020008300000000000000645  X
45861448003153510GH PNWWLA 2811535100007341604028100006LUNDB RICE WHITE JASMINE ORG  LUNDBERG WHITE JAS    2 LB   32.00OZ02       1000261502017122300000000000000000000000000000000000000000000000000000000000000000000000000000000000000000000000000000000000000000000000000000000000000000N   0000003730037302       NN20171209 N00006000261500000000000000000000000000349020171125201712220030699000000000000000000000000000000000000000000000000000000000000000000000000000100008190+46800D2017111120171222000000000000000000000000000000000+00000000000000N    2SF                 1324R00000000000+000001320R00000000000+000000000 00000000000 000000000 00000000000 000000000 00000000000 000000000 00000000000 000000000 00000000000 000000000 00000000000 000000000 00000000000 000000000 00000000000 00000 0000734160402810001300000360060000950011000000000000000819  X
45861448003153520GH PNWWLA 2811535200007341604022900006LUNDB RICE JASMINE WHITE      LD ECO  WH JASM RC    2 LB   32.00OZ02       1000185602017122300000000000000000000000000000000000000000000000000000000000000000000000000000000000000000000000000000000000000000000000000000000000000000N   0000003730037302       NN20171209 N00006000185600000000000000000000000000245020171125201712220030699000000000000000000000000000000000000000000000000000000000000000000000000000100006450+52000D2017111120171222000000000000000000000000000000000+00000000000000N    2SF                 1324R00100005590+351521320R00100006290+423690000 00000000000 000000000 00000000000 000000000 00000000000 000000000 00000000000 000000000 00000000000 000000000 00000000000 000000000 00000000000 000000000 00000000000 00000 0000734160402290001300000360060000950011000000000000000645  X
45861448003153630GH PNWWLA 2811536300007341604003800006LUNDB RICE SUSHI ORG          LUND ORGANIC SUSHI    2 LB   32.00OZ02       1000262202017122300000000000000000000000000000000000000000000000000000000000000000000000000000000000000000000000000000000000000000000000000000000000000000N   0000003730037302       NN20171209 N00006000262200000000000000000000000000350020171125201712220030699000000000000000000000000000000000000000000000000000000000000000000000000000100008450+48300D2017111120171222000000000000000000000000000000000+00000000000000N    2SF                 1324R00100007490+316201320R00000000000+000000000 00000000000 000000000 00000000000 000000000 00000000000 000000000 00000000000 000000000 00000000000 000000000 00000000000 000000000 00000000000 000000000 00000000000 00000 0000734160400380001300000360060000950011000000000000000845  X
45861448003161650GH PNWWLA 2811616500088937912507700006RED FORK SAUCE CHILI          RED FORK CHILI SSN    8 OZ    8.00OZ02       1000093102017122300000000000000000000000000000000000000000000000000000000000000000000000000000000000000000000000000000000000000000000000000000000000000000N   00000061000610160308013NN20171209 N00006000093100000000000000000000000000120020171125201712220086200000000000000000000000000000000000000000000000000000000000000000000000000000100002850+45600D2017111120171222000000000000000000000000000000000+00000000000000N    2SF                 1324R00000000000+000001320R00000000000+000000000 00000000000 000000000 00000000000 000000000 00000000000 000000000 00000000000 000000000 00000000000 000000000 00000000000 000000000 00000000000 000000000 00000000000 00000 0108893791250740000345000170065000470009500000000000000285  X
45861448003186810GH PNWWLA 2531868100008915684011100012SANTA BAR OLIVE MED BLACK     SB MED BLACK OLIVE    6 OZ    6.00OZ02       1000190302017122300000000000000000000000000000000000000000000000000000000000000000000000000000000000000000000000000000000000000000000000000000000000000000N   0000006130061306       NN20171209 N00012000190300001500201711252017122200000000000000000000000000000000000000000000000000000000000000000000000000000000000000000000000000000000100003250+51200D2017111120171222000000000000000000000000000000000+00000000000000N    2SF                 1324R00000000000+000001320R00000000000+000000000 00000000000 000000000 00000000000 000000000 00000000000 000000000 00000000000 000000000 00000000000 000000000 00000000000 000000000 00000000000 000000000 00000000000 00000 0000891568401110001310000290046000900012000000000000000325  X
45861448003193190GH PNWWLA 2811931900008136300100200012NY STYLE BAGEL CRSP RST GARLICNY BGL CHP GAR      7.2 OZ    7.20OZ02       1000221002017122300000000000000000000000000000000000000000000000000000000000000000000000000000000000000000000000000000000000000000000000000000000000000000N   00000065800658020301824NN20171209 N00012000221000000000000000000000000000515020171028201712220088695000000000000000000000000000000000000000000000000000000000000000000000000000100004390+58000D2017101420171222000000000000000000000000000000000+00000000000000N    2SF                 1324R00000000000+000001320R00000000000+000000000 00000000000 000000000 00000000000 000000000 00000000000 000000000 00000000000 000000000 00000000000 000000000 00000000000 000000000 00000000000 000000000 00000000000 00000 0100813630010090000700001070080001150020000000000000000439  X
45861448003193980GH PNWWLA 2811939800008136300200900012NY STYLE BAGEL CRSP SEA SALT  NY CHP S SLT        7.2 OZ    7.20OZ02       1000221002017122300000000000000000000000000000000000000000000000000000000000000000000000000000000000000000000000000000000000000000000000000000000000000000N   00000065800658020301824NN20171209 N00012000221000000000000000000000000000515020171028201712220088695000000000000000000000000000000000000000000000000000000000000000000000000000100004390+58000D2017101420171222000000000000000000000000000000000+00000000000000N    2SF                 1324R00000000000+000001320R00000000000+000000000 00000000000 000000000 00000000000 000000000 00000000000 000000000 00000000000 000000000 00000000000 000000000 00000000000 000000000 00000000000 000000000 00000000000 00000 0100813630020060000700001070080001150020000000000000000439  X
45861448003194060GH PNWWLA 2511940600073449270130400006MODENACETI BALSAMIC VINEGAR   MODENCETI BALSAMIC 16.9 OZ   16.90OZ02       1000215402017122300000000000000000000000000000000000000000000000000000000000000000000000000000000000000000000000000000000000000000000000000000000000000000N   0000006240062402       NN20171209 N00006000215400001680201711252017122200000000000000000000000000000000000000000000000000000000000000000000000000000000000000000000000000000000100005390+33400D2017111120171222000000000000000000000000000000000+00000000000000N    2SF                 1324R00100007290+413581320R00000000000+000000000 00000000000 000000000 00000000000 000000000 00000000000 000000000 00000000000 000000000 00000000000 000000000 00000000000 000000000 00000000000 000000000 00000000000 00000 0007344927013040001200000270110000530008100000000000000539  X
45861448003196550GH PNWWLA 2811965500008136300300600012NY STYLE BAGEL CRSP PLAIN     NY CHP PLAIN        7.2 OZ    7.20OZ02       1000221002017122300000000000000000000000000000000000000000000000000000000000000000000000000000000000000000000000000000000000000000000000000000000000000000N   00000065800658020301824NN20171209 N00012000221000000000000000000000000000515020171028201712220088695000000000000000000000000000000000000000000000000000000000000000000000000000100004390+58000D2017101420171222000000000000000000000000000000000+00000000000000N    2SF                 1324R00000000000+000001320R00000000000+000000000 00000000000 000000000 00000000000 000000000 00000000000 000000000 00000000000 000000000 00000000000 000000000 00000000000 000000000 00000000000 000000000 00000000000 00000 0100813630030030000700001070080001150020000000000000000439  X
45861448003196670GH PNWWLA 2811966700008136300800100012NY STYLE BAGEL CRSP CINN RAISNNY CHP CIN RS       7.2 OZ    7.20OZ02       1000221002017122300000000000000000000000000000000000000000000000000000000000000000000000000000000000000000000000000000000000000000000000000000000000000000N   00000065800658020301824NN20171209 N00012000221000000000000000000000000000515020171028201712220088695000000000000000000000000000000000000000000000000000000000000000000000000000100004390+58000D2017101420171222000000000000000000000000000000000+00000000000000N    2SF                 1324R00000000000+000001320R00000000000+000000000 00000000000 000000000 00000000000 000000000 00000000000 000000000 00000000000 000000000 00000000000 000000000 00000000000 000000000 00000000000 000000000 00000000000 00000 0100813630080080000700001070080001150020000000000000000439  X
45861448003203520GH PNWWLA 2512035200004364621038900012MAILLE CORNICHONS EXTRA FINE  MAI X FINE CORNICH 13.5 OZ   13.50OZ02       1000448602017122300000000000000000000000000000000000000000000000000000000000000000000000000000000000000000000000000000000000000000000000000000000000000000N   0000006120061230       NN20171209 N00012000448600003720201711252017122200000000000000000000000000000000000000000000000000000000000000000000000000000000000000000000000000000000100006990+46500D2017111120171222000000000000000000000000000000000+00000000000000N    4SF                 1324R00000000000+000001320R00100006990+336790000 00000000000 000000000 00000000000 000000000 00000000000 000000000 00000000000 000000000 00000000000 000000000 00000000000 000000000 00000000000 000000000 00000000000 00000 0000436462103890001655000350051000950012400000000000000699  X
45861448003204360GH PNWWLI 1000000000083254400041000006CLIP ORG CHAMOM               CLIP ORG CHAMOM   20 CT       0.00           6000144202017122300000000000000000000000000000000000000000000000000000000000000000000000000000000000000000000000000000000000000000000000000000000000000000N   0000006500065004         20171209 N00006000144200000000000000000000000000000000000000000000000000000000000000000000000000000000000000000000000000000000000000000000000000000000100004550+47200 0000000000000000000000000000000000000000000000000+00000000000000N                        1324R00000000000+000001320R00000000000+000000000 00000000000 000000000 00000000000 000000000 00000000000 000000000 00000000000 000000000 00000000000 000000000 00000000000 000000000 00000000000 000000000 00000000000 00000 0000000000000000000000000000000000000000000000000000000455  X
45861448003217530GH PNWWLI 1000000000007236822438000006DEL P/F SPCY AR               DEL P/F SPCY AR   25.25Z      0.00           6000252802017122300000000000000000000000000000000000000000000000000000000000000000000000000000000000000000000000000000000000000000000000000000000000000000N   0000006100061012         20171209 N00006000252800000000000000000000000000000000000000000000000000000000000000000000000000000000000000000000000000000000000000000000000000000000100007850+46300T2017090900000000000000000000000000000000000000000+00000000000000N                        1324R00000000000+000001320R00000000000+000000000 00000000000 000000000 00000000000 000000000 00000000000 000000000 00000000000 000000000 00000000000 000000000 00000000000 000000000 00000000000 000000000 00000000000 00000 0000000000000000000000000000000000000000000000000000000785  X
45861448003219690GH PNWWLI 1000000000070895350268000006LO MEK FLWR RCE               LO MEK FLWR RCE   15 OZ       0.00           6000148502017122300000000000000000000000000000000000000000000000000000000000000000000000000000000000000000000000000000000000000000000000000000000000000000N   0000006340063402         20171209 N00006000148500000000000000000000000000195000000000000000000000000000000000000000000000000000000000000000000000000000000000000000000000000000100004690+47200 0000000000000000000000000000000000000000000000000+00000000000000N                        1324R00000000000+000001320R00000000000+000000000 00000000000 000000000 00000000000 000000000 00000000000 000000000 00000000000 000000000 00000000000 000000000 00000000000 000000000 00000000000 000000000 00000000000 00000 0000000000000000000000000000000000000000000000000000000469  X
45861448003224650GH PNWWLA 2512246500004364620400500006MAILLE MUSTARD - HONEY        MAILLE HONEY MUSTD    8 OZ    8.00OZ02       1000152202017122300000000000000000000000000000000000000000000000000000000000000000000000000000000000000000000000000000000000000000000000000000000000000000N   00000061400614110301485NN20171209 N00006000152200001260201711252017122200000000000000000000000000000000000000000000000000000000000000000000000000000000000000000000000000000000100004990+49200D2017111120171222000000000000000000000000000000000+00000000000000N    2SF                 1324R00000000000+000001320R00100004990+398130000 00000000000 000000000 00000000000 000000000 00000000000 000000000 00000000000 000000000 00000000000 000000000 00000000000 000000000 00000000000 000000000 00000000000 00000 0000436462040050000499000110042000550008200000000000000499  X
45861448003224670GH PNWWLA 2512246700004364620758700006MAILLE OLD STYLE DIJON WGRAIN MAILLE OLD STYLE    7.3 OZ    7.30OZ02       1000152202017122300000000000000000000000000000000000000000000000000000000000000000000000000000000000000000000000000000000000000000000000000000000000000000N   00000061400614110301485NN20171209 N00006000152200001260201711252017122200000000000000000000000000000000000000000000000000000000000000000000000000000000000000000000000000000000100004990+49200D2017111120171222000000000000000000000000000000000+00000000000000N    2SF                 1324R00000000000+000001320R00100004990+398130000 00000000000 000000000 00000000000 000000000 00000000000 000000000 00000000000 000000000 00000000000 000000000 00000000000 000000000 00000000000 000000000 00000000000 00000 0000436462075870000480000120044000570008300000000000000499  X
45861448003224680GH PNWWLA 2512246800004364620128800006MAILLE MUSTARD DIJON          MAILLE MUSTARD DJN  7.3 OZ    7.30OZ02       1000152202017122300000000000000000000000000000000000000000000000000000000000000000000000000000000000000000000000000000000000000000000000000000000000000000N   00000061400614110301485NN20171209 N00006000152200001260201711252017122200000000000000000000000000000000000000000000000000000000000000000000000000000000000000000000000000000000100004990+49200D2017111120171222000000000000000000000000000000000+00000000000000N    2SF                 1324R00000000000+000001320R00100004990+398130000 00000000000 000000000 00000000000 000000000 00000000000 000000000 00000000000 000000000 00000000000 000000000 00000000000 000000000 00000000000 000000000 00000000000 00000 0000436462012880000500000110042000550008200000000000000499  X
45861448003224710GH PNWWLI 1000000000000829566107000006DN BLSM VN GOLD               DN BLSM VN GOLD   8.5 OZ      0.00           6000356902017122300000000000000000000000004870000000000000000000000000000000000000000000000000000000000000000000000000000000000000000000000000000000000000N   0000006240062402         20171209 N00006000356900000000000000000000000000487000000000000000000000000000000000000000000000000000000000000000000000000000000000000000000000000000100011650+48900 0000000000000000000000000000000000000000000000000+00000000000000N                        1324R00000000000+000001320R00000000000+000000000 00000000000 000000000 00000000000 000000000 00000000000 000000000 00000000000 000000000 00000000000 000000000 00000000000 000000000 00000000000 000000000 00000000000 00000 0000000000000000000000000000000000000000000000000000001165  X
45861448003226120GH PNWWLA 2812261200001553210097500006MONTEBELLO OIL EX VRGN OLV ORGMONT EVOO ORG      25.4 OZ   25.40OZ02       1000714602017122300000000000000000000000000000000000000000000000000000000000000000000000000000000000000000000000000000000000000000000000000000000000000000N   0000006220062205       NN20171209 N00006000714600000000000000000000000000936020171125201712220075373000000000000000000000000000000000000000000000000000000000000000000000000000100025490+53300D2017111120171222000000000000000000000000000000000+00000000000000N    2RE                 1324R00000000000+000001320R00000000000+000000000 00000000000 000000000 00000000000 000000000 00000000000 000000000 00000000000 000000000 00000000000 000000000 00000000000 000000000 00000000000 000000000 00000000000 00000 0000155321009750001650000300115000820005500000000000002549  X
45861448003226640GH PNWWLA 2812266400001553210096800006MONTEBELLO OIL EX VRGN OLV ORGMONT EVOO ORG      16.9 OZ   16.90OZ02       1000515702017122300000000000000000000000000000000000000000000000000000000000000000000000000000000000000000000000000000000000000000000000000000000000000000N   0000006220062205       NN20171209 N00006000515700000000000000000000000000675020171125201712220075373000000000000000000000000000000000000000000000000000000000000000000000000000100017990+52200D2017111120171222000000000000000000000000000000000+00000000000000N    2RE                 1324R00000000000+000001320R00000000000+000000000 00000000000 000000000 00000000000 000000000 00000000000 000000000 00000000000 000000000 00000000000 000000000 00000000000 000000000 00000000000 000000000 00000000000 00000 0000155321009680001212000240112000750005000000000000001799  X
45861448003294940GH PNWWLB 1012949400008438096834100006ST DALFOUR TEA ORG DARJEELING ST DAL TEA DARJEEL   25 CT   25.00CT17       1000131202017122300000000000000000000000000000000000000000000000000000000000000000000000000000000000000000000000000000000000000000000000000000000000000000N   00000065000650040301436NN20171209 N00006000131200000000000000000000000000000000000000000000000000000000000000000000000000000000000000000000000000000000000000000000000000000000100003490+37300 0000000000000000000000000000000000000000000000000+00000000000000N    2SF                 1324R00000000000+000001320R00000000000+000000000 00000000000 000000000 00000000000 000000000 00000000000 000000000 00000000000 000000000 00000000000 000000000 00000000000 000000000 00000000000 000000000 00000000000 00000 0000843809683410000175000280066000790009400000000000000349  X
45861448003302400GH PNWWLI 1000000000089348100113000024SA030 HND SAN ORIG            SA030 HND SAN ORIG1 OZ        0.00          24000443602017122300000000000000000000000000000000000000000000000000000000000000000000000000000000000000000000000000000000000000000000000000000000000000000N   0000003930039324         20171209 N00024000443600000000000000000000000000000000000000000000000000000000000000000000000000000000000000000000000000000000000000000000000000000000100003990+53700 0000000000000000000000000000000000000000000000000+00000000000000N                        1324R00000000000+000001320R00000000000+000000000 00000000000 000000000 00000000000 000000000 00000000000 000000000 00000000000 000000000 00000000000 000000000 00000000000 000000000 00000000000 000000000 00000000000 00000 0000000000000000000000000000000000000000000000000000000399  X
45861448003307810GH PNWWLN 0513078100000000000000000048LUNDB RICE CAKES #2 SHPR      LUN RCE CK #2 SHPR    1 EA    1.00EA04       1001161002017122300000000000000000000000000000000000000000000000000000000000000000000000000000000000000000000000000000000000000000000000000000000000000000Y   0000003900039003       NN20171209 N00000000000000000000000000000000000000000000000000000000000000000000000000000000000000000000000000000000000000000000000000000000000000000000000000000+00000 0000000000000000000000000000000000000000000000000+00000000000000N    7SF                 1324R00000000000+000001320R00000000000+000000000 00000000000 000000000 00000000000 000000000 00000000000 000000000 00000000000 000000000 00000000000 000000000 00000000000 000000000 00000000000 000000000 00000000000 00000N0300734165330050003725007020490001800013750000400000000000  X
45861448003311190GH PNWWLA 2813111900007454081163100015ANTHON BERG LIQUEUR FLD CHO BXAB LIQ FLD CHO BX  8.82 OZ    8.82OZ02       1001648402017122300000000000000000000000000000000000000000000000000000000000000000000000000000000000000000000000000000000000000000000000000000000000000000N   0000006800068003       NN20171209 Y00015001648400000000000000000000000000000000000000000000000000000011990201710072017122200320010000000000000000000000000000000000000000000000100020290+45800D2017092320171222000000000000000000000000000000000+00000000000000N    2SF                 1324R00000000000+000001320R00000000000+000000000 00000000000 000000000 00000000000 000000000 00000000000 000000000 00000000000 000000000 00000000000 000000000 00000000000 000000000 00000000000 000000000 00000000000 00000 0000745400087410001103000540074001240010100000000000002029  X
45861448003323470GH PNWWLA 2813234700007071800078400006BAR HARBR SOUP LOBSTER BISQUE BH LOBSTER BISQUE  10.5 OZ   10.50OZ02       1000137902017122300000000000000000000000000000000000000000000000000000000000000000000000000000000000000000000000000000000000000000000000000000000000000000N   0000006260062616       NN20171209 N00006000137900000000000000000000000000126020171125201712220094553000000000000000000000000000000000000000000000000000000000000000000000000000100004550+49500D2017111120171222000000000000000000000000000000000+00000000000000N    2SF                 1324R00000000000+000001320R00000000000+000000000 00000000000 000000000 00000000000 000000000 00000000000 000000000 00000000000 000000000 00000000000 000000000 00000000000 000000000 00000000000 000000000 00000000000 00000 0000707180007840000495000130045000590008400000000000000455  X
45861448003323520GH PNWWLA 2813235200007071800076000006BAR HARBR SOUP CLAM CHOWDER   BH CLAM CHOWDER      15 OZ   15.00OZ02       1000140002017122300000000000000000000000000000000000000000000000000000000000000000000000000000000000000000000000000000000000000000000000000000000000000000N   00000062600626160300644NN20171209 N00006000140000000000000000000000000000126020171125201712220094553000000000000000000000000000000000000000000000000000000000000000000000000000100004790+51300D2017111120171222000000000000000000000000000000000+00000000000000N    2SF                 1324R00000000000+000001320R00000000000+000000000 00000000000 000000000 00000000000 000000000 00000000000 000000000 00000000000 000000000 00000000000 000000000 00000000000 000000000 00000000000 000000000 00000000000 00000 0000707180007600000675000190051000650009700000000000000479  X
45861448003330430GH PNWWLI 1000000000068069210103000006NUMI ORG HNYBSH               NUMI ORG HNYBSH   18 CT       0.00           6000252502017122300000000000000000000000000000000000000000000000000000000000000000000000000000000000000000000000000000000000000000000000000000000000000000N   0000003860038602         20171209 N00006000252500000000000000000000000000000000000000000000000000000000000000000000000000000000000000000000000000000000000000000000000000000000100006650+36700 0000000000000000000000000000000000000000000000000+00000000000000N                        1324R00000000000+000001320R00000000000+000000000 00000000000 000000000 00000000000 000000000 00000000000 000000000 00000000000 000000000 00000000000 000000000 00000000000 000000000 00000000000 000000000 00000000000 00000 0000000000000000000000000000000000000000000000000000000665  X
45861448003340890GH PNWWLI 1000000000002685106103000006KOOKA TRTS CH                 KOOKA TRTS CH     5 OZ        0.00           6000071302017122300000000000000000000000000000000000000000000000000000000000000000000000000000000000000000000000000000000000000000000000000000000000000000N   0000003970039705         20171209 N00006000071300000000000000000000000000000000000000000000000000000000000000000000000000000000000000000000000000000000000000000000000000000000100002290+48100 0000000000000000000000000000000000000000000000000+00000000000000N                        1324R00000000000+000001320R00000000000+000000000 00000000000 000000000 00000000000 000000000 00000000000 000000000 00000000000 000000000 00000000000 000000000 00000000000 000000000 00000000000 000000000 00000000000 00000 0000000000000000000000000000000000000000000000000000000229  X
45861448003348480GH PNWWLA 2813484800007468300551500012MAPLE GRV SYRUP VERMONT S/FREEM/G PNCKE SYRP S/F   12 OZ   12.00OZ02       1000204602017122300000000000000000000000000000000000000000000000000000000000000000000000000000000000000000000000000000000000000000000000000000000000000000N   0000006370063706       NN20171209 N00012000204600000000000000000000000000372020171125201712220076789000000000000000000000000000000000000000000000000000000000000000000000000000100003590+52500D2017111120171222000000000000000000000000000000000+00000000000000N    2SF                 1324R00100003490+398521320R00000000000+000000000 00000000000 000000000 00000000000 000000000 00000000000 000000000 00000000000 000000000 00000000000 000000000 00000000000 000000000 00000000000 000000000 00000000000 00000 0000746830055150001065000440089000820010500000000000000359  X
45861448003352420GH PNWWLA 0613524200004127857993500012DAVID'S SALT KOSHER           DAVIDS KOSHER SALT   16 OZ   16.00OZ02       1000275802017122300000000000000000000000000000000000000000000000000000000000000000000000000000000000000000000000000000000000000000000000000000000000000000NPN 3524806520065202       NN20171209 N00012000275800000000000000000000000000000000000000000000000000000001900201710212017122200731370000000000000000000000000000000000000000000000100003490+34100D2017100720171222000000000000000000000000000000000+00000000000000N    2SF                 1324R00100004790+410751320R00000000000+000000000 00000000000 000000000 00000000000 000000000 00000000000 000000000 00000000000 000000000 00000000000 000000000 00000000000 000000000 00000000000 000000000 00000000000 00000 0000412785799350001395000390071000840011300000000000000349  X
45861448003352480GH PNWWLN 0713524800081900902002100012DAVIDS SALT KOSHER            DAVIDS KOSHER SALT   16 OZ   16.00OZ02       1000275802017122300000000000000000000000000000000000000000000000000000000000000000000000000000000000000000000000000000000000000000000000000000000000000000NPO 3524206520065202       NN20171209 N00012000000000000000000000000000000000000000000000000000000000000000000000000000000000000000000000000000000000000000000000000000000000000000000000000+34100D2017100720171222000000000000000000000000000000000+00000000000000N    2SF                 1324R00000000000+000001320R00000000000+000000000 00000000000 000000000 00000000000 000000000 00000000000 000000000 00000000000 000000000 00000000000 000000000 00000000000 000000000 00000000000 000000000 00000000000 00000N0008190090200210001500000430092000750010700000000000000349  X
45861448003360680GH PNWWLA 2513606800008915684013500012SANTA BAR OLIVE GREEN RIPE TINSB GRN OLIVE TIN   6.00 OZ    6.00OZ02       1000294802017122300000000000000000000000000000000000000000000000000000000000000000000000000000000000000000000000000000000000000000000000000000000000000000N   0000006130061306       NN20171209 N00012000294800002400201711252017122200000000000000000000000000000000000000000000000000000000000000000000000000000000000000000000000000000000100004750+48300D2017111120171222000000000000000000000000000000000+00000000000000N    2SF                 1324R00000000000+000001320R00000000000+000000000 00000000000 000000000 00000000000 000000000 00000000000 000000000 00000000000 000000000 00000000000 000000000 00000000000 000000000 00000000000 000000000 00000000000 00000 0000891568401350001255000280045000900012000000000000000475  X
45861448003370540GH PNWWLA 2813705400007071800094400006BAR HARBR SOUP CLAM/C0RN CHWDRBH CLAM/CRN CHOWDR   15 OZ   15.00OZ02       1000140002017122300000000000000000000000000000000000000000000000000000000000000000000000000000000000000000000000000000000000000000000000000000000000000000N   00000062600626160300644NN20171209 N00006000140000000000000000000000000000126020171125201712220094553000000000000000000000000000000000000000000000000000000000000000000000000000100004790+51300D2017111120171222000000000000000000000000000000000+00000000000000N    2SF                 1324R00000000000+000001320R00000000000+000000000 00000000000 000000000 00000000000 000000000 00000000000 000000000 00000000000 000000000 00000000000 000000000 00000000000 000000000 00000000000 000000000 00000000000 00000 0000707180009440000650000140045000600009200000000000000479  X
45861448003379260GH PNWWLA 2813792600007341651010400006LUNDB WG RICE SPANISH ORG     LUND ORG RC SPANSH    6 OZ    6.00OZ02       1000124102017122300000000000000000000000000000000000000000000000000000000000000000000000000000000000000000000000000000000000000000000000000000000000000000N   0000003730037302       NN20171209 N00006000124100000000000000000000000000167020171125201712220029011000000000000000000000000000000000000000000000000000000000000000000000000000100003890+46800D2017111120171222000000000000000000000000000000000+00000000000000N    2SF                 1324R00100003690+342821320R00000000000+000000000 00000000000 000000000 00000000000 000000000 00000000000 000000000 00000000000 000000000 00000000000 000000000 00000000000 000000000 00000000000 000000000 00000000000 00000 0200734165101080000305000200072001180004000000000000000389  X
45861448003379300GH PNWWLA 2813793000007341650960300006LUNDB WG WILD RICE & MUSHR ORGLUND ORG RC MUSHRM    6 OZ    6.00OZ02       1000124102017122300000000000000000000000000000000000000000000000000000000000000000000000000000000000000000000000000000000000000000000000000000000000000000N   0000003730037302       NN20171209 N00006000124100000000000000000000000000167020171125201712220029011000000000000000000000000000000000000000000000000000000000000000000000000000100003890+46800D2017111120171222000000000000000000000000000000000+00000000000000N    2SF                 1324R00000000000+000001320R00000000000+000000000 00000000000 000000000 00000000000 000000000 00000000000 000000000 00000000000 000000000 00000000000 000000000 00000000000 000000000 00000000000 000000000 00000000000 00000 0200734165096070000305000200072001180004000000000000000389  X
45861448003379320GH PNWWLA 2813793200007341650950400006LUNDB WG WILD RICE ORIG ORG   LUND ORG RC ORIGNL    6 OZ    6.00OZ02       1000124102017122300000000000000000000000000000000000000000000000000000000000000000000000000000000000000000000000000000000000000000000000000000000000000000N   0000003730037302       NN20171209 N00006000124100000000000000000000000000167020171125201712220029011000000000000000000000000000000000000000000000000000000000000000000000000000100003890+46800D2017111120171222000000000000000000000000000000000+00000000000000N    2SF                 1324R00000000000+000001320R00000000000+000000000 00000000000 000000000 00000000000 000000000 00000000000 000000000 00000000000 000000000 00000000000 000000000 00000000000 000000000 00000000000 000000000 00000000000 00000 0200734165095080000305000200072001180004000000000000000389  X
