45861        044801001620300162000087393400223100006ALOHA SHOYU TERIYAKI SAUCE       24 OZ546005460800000002772153RN2017112520171229+000024300000100000N00000                                      11816N N     YREFL                                                                                      X
45861        044801001630300163000087393400218700006ALOHA SHOYU BARBECUE SAUCE       24 OZ546005461400000002772153RN2017112520171229+000024300000100000N00000                                      11816N N     YREFL                                                                                      X
45861        044801002120300212000084655800010500012POMI TOMATOES FINELY CHOPPED  26.46 OZ6120061234574780027828101A2017102820180105+000036000000100000N00000                                      13433N Y     YEP1SA                                                                                     X
45861        044801002120300212000084655800010500012POMI TOMATOES FINELY CHOPPED  26.46 OZ6120061234923390029654051A2018010620180202+000036000000100000N00000                                      13433N Y     YEP1SA                                                                                     X
45861        044801002120300212000084655800010500012POMI TOMATOES FINELY CHOPPED  26.46 OZ6120061234575100027828121A2018022420180406+000036000000100000N00000                                      13433N Y     YEP1SA                                                                                     X
45861        044801002120300212000084655800010500012POMI TOMATOES FINELY CHOPPED  26.46 OZ6120061234916710029653971A2018063020180803+000036000000100000N00000                                      13433N Y     YEP1SA                                                                                     X
45861        044801002120300212000084655800010500012POMI TOMATOES FINELY CHOPPED  26.46 OZ6120061234922700029654001R2018090120181005+000036000000100000N00005                                      13433Y N     YEP1SA                                                                                     X
45861        044801002510300251000007079640012400006CENTO TOMATO CRSHD CHUCK ORGNC   28 OZ6120061234066520027862481A2018012720180302+000020300000100000N00000                                      14678N Y     YEP1SA                                                                                     X
45861        044801002520300252000007079640013100006CENTO TOMATO WHOLE PEELD ORGNC   28 OZ6120061234066520027862481A2018012720180302+000020300000100000N00000                                      14678N Y     YEP1SA                                                                                     X
45861        044801002850300285000009232522222900006ANNIE MUSTARD HONEY ORG           9 OZ3600036003739530029286851A2017123020180202+000018000000100000N00000                                      17184N Y     YEP1SA                                                                                     X
45861        044801005380300538000089445500002500006JUSTINS ALMD BTR HONEY           16 OZ3840038401955020027522221A2017123020180202+000072000000100000N00000                                      18740N Y     YEP1SA                                                                                     X
45861        044801005380300538000089445500002500006JUSTINS ALMD BTR HONEY           16 OZ3840038401962410027524251A2018022420180406+000072000000100000N00000                                      18740N Y     YEP1SA                                                                                     X
45861        044801005730300573000007341600020900012LUNDB RICE CAKE SEMS TAMAR ORG    9 OZ3900039003231190027845951A2017123020180202+000039100000100000N00000                                      11880N Y     YEP1SA                                                                                     X
45861        044801005730300573000007341600020900012LUNDB RICE CAKE SEMS TAMAR ORG    9 OZ3900039003276350027848731A2018033120180504+000039100000100000N00000                                      11880N Y     YEP1SA                                                                                     X
45861        044801005730300573000007341600020900012LUNDB RICE CAKE SEMS TAMAR ORG    9 OZ3900039003535880029908431A2018052620180622+000039100000100000N00000                                      11880N Y     YEP1SA                                                                                     X
45861        044801005730300573000007341600020900012LUNDB RICE CAKE SEMS TAMAR ORG    9 OZ3900039003540600029908731A2018092220181019+000039100000100000N00000                                      11880N Y     YEP1SA                                                                                     X
45861        044801005740300574000007341600017900012LUNDB RICE CAKE WILD LS ORG     8.5 OZ3900039003231190027845951A2017123020180202+000039100000100000N00000                                      11880N Y     YEP1SA                                                                                     X
45861        044801005740300574000007341600017900012LUNDB RICE CAKE WILD LS ORG     8.5 OZ3900039003276350027848731A2018033120180504+000039100000100000N00000                                      11880N Y     YEP1SA                                                                                     X
45861        044801005740300574000007341600017900012LUNDB RICE CAKE WILD LS ORG     8.5 OZ3900039003535880029908431A2018052620180622+000039100000100000N00000                                      11880N Y     YEP1SA                                                                                     X
45861        044801005740300574000007341600017900012LUNDB RICE CAKE WILD LS ORG     8.5 OZ3900039003540600029908731A2018092220181019+000039100000100000N00000                                      11880N Y     YEP1SA                                                                                     X
45861        044801007870300787000009370910100000006PAMELAS CKY PECAN SHORTBRD GF  7.25 OZ374003740126190002835814QA2017112520171222+000009200000100010Y00000                                      13339N N     YQDASQ                                                                                     X
45861        044801007870300787000009370910100000006PAMELAS CKY PECAN SHORTBRD GF  7.25 OZ3740037401435830028421071A2017112520171222+000020300000100000N00000                                      13339N Y     YEP1SA                                                                                     X
45861        044801007870300787000009370910100000006PAMELAS CKY PECAN SHORTBRD GF  7.25 OZ3740037401652370029501721A2018012720180223+000020300000100000N00000                                      13339N Y     YEP1SA                                                                                     X
45861        044801007870300787000009370910100000006PAMELAS CKY PECAN SHORTBRD GF  7.25 OZ3740037401746960029956631A2018042820180525+000020300000100000N00000                                      13339N Y     YEP1SA                                                                                     X
45861        044801007870300787000009370910100000006PAMELAS CKY PECAN SHORTBRD GF  7.25 OZ3740037401750480029956691A2018072820180824+000020300000100000N00000                                      13339N Y     YEP1SA                                                                                     X
45861        044801007960300796000006927601205600006PATAKS RELISH MANGO MED          10 OZ6600066020851820028694361A2018022420180406+000015000000100000N00000                                      14619N Y     YEP1SA                                                                                     X
45861        044801008010300801000009370930010600006PAMELAS MIX BAKNG & PANCAKE GF   24 OZ3800038002542280029196571A2017123020180126+000035900000100000N00000                                      13339N Y     YEP1SA                                                                                     X
45861        044801008010300801000009370930010600006PAMELAS MIX BAKNG & PANCAKE GF   24 OZ3800038002751760029956781A2018082520180921+000035900000100000N00000                                      13339N Y     YEP1SA                                                                                     X
45861        044801008800300880000002250610260600012SPECTRUM SHORTENING ORG          24 OZ3620036201898940029603721A2018022420180406+000070700000100000N00000                                      12604N Y     YEP1SA                                                                                     X
45861        044801008830300883000002250613806300006SPECTRUM SPRAY CANOLA ORG         6 OZ3620036201898940029603721A2018022420180406+000026100000100000N00000                                      12604N Y     YEP1SA                                                                                     X
45861        044801008850300885000002250680006900006SPECTRUM SPRAY OLIVE XVR ORG  6     OZ3620036201898940029603721A2018022420180406+000026100000100000N00000                                      12604N Y     YEP1SA                                                                                     X
45861        044801009210300921000005833617603600012EURO GRMT PUDDING MIX VANILLA   3.5 OZ3800038007900120029534981A2018012720180406+000024400000100000N00000                                      13502N Y     YEP1SA                                                                                     X
45861        044801009230300923000005833617550300012EURO GRMT ICING MIX VANILLA    11.3 OZ6360063616900600029535051A2018012720180406+000054000000100000N00000                                      13502N Y     YEP1SA                                                                                     X
45861        044801009270300927000005833617600500012EURO GRMT PUDDING MIX CHOC      3.5 OZ3800038007900120029534981A2018012720180406+000024400000100000N00000                                      13502N Y     YEP1SA                                                                                     X
45861        044801009280300928000002250620132300012SPECTRUM MAYO CANOLA          32    OZ3600036001898940029603721A2018022420180406+000065000000100000N00000                                      12604N Y     YEP1SA                                                                                     X
45861        044801009320300932000002250613807000006SPECTRUM SPRAY COCONUT            6 OZ3620036201898940029603721A2018022420180406+000027500000100000N00000                                      12604N Y     YEP1SA                                                                                     X
45861        044801009820300982000002250600233300006SPECTRUM OIL OLIVE MEDITER ORG33.8  OZ3620036201880620029603531A2018022420180406+000091400000100000N00000                                      12604N Y     YEP1SA                                                                                     X
45861        044801009820300982000002250600233300006SPECTRUM OIL OLIVE MEDITER ORG33.8  OZ3620036201044180029603532R2018022420180406+000024900000200000N00000                                      12604N N     YEP2SQ                                                                                     X
45861        044801010190301019000075764502152400006NEWMANS COOKIE OS WFR VAN CRM    13 OZ374003740193713002960388DA2018012720180302+000019800000100000Y00000                                      13226N N     YDISPSQ                                                                                    X
45861        044801010190301019000075764502152400006NEWMANS COOKIE OS WFR VAN CRM    13 OZ374003740193713002960388DA2018012720180302+000026300000100000Y00000                                      13226N N     YDISPSQ                                                                                    X
45861        044801010190301019000075764502152400006NEWMANS COOKIE OS WFR VAN CRM    13 OZ3740037401465280029564071A2018012720180302+000018000000100000N00000                                      13226N Y     YEP1SA                                                                                     X
45861        044801010190301019000075764502152400006NEWMANS COOKIE OS WFR VAN CRM    13 OZ3740037401529590030082331A2018042820180601+000018000000100000N00000                                      13226N Y     YEP1SA                                                                                     X
45861        044801010190301019000075764502152400006NEWMANS COOKIE OS WFR VAN CRM    13 OZ3740037401851570030083321A2018072820180907+000018000000100000N00000                                      13226N N     YEP1SA                                                                                     X
45861        044801010230301023000075764502172200006NEWMANS COOKIE OS WFR VAN CRM     8 OZ374003740193729002960392DA2018012720180302+000011800000100000Y00000                                      13226N N     YDISPSQ                                                                                    X
45861        044801010230301023000075764502172200006NEWMANS COOKIE OS WFR VAN CRM     8 OZ374003740193729002960392DA2018012720180302+000015600000100000Y00000                                      13226N N     YDISPSQ                                                                                    X
45861        044801010230301023000075764502172200006NEWMANS COOKIE OS WFR VAN CRM     8 OZ3740037401953140029563581A2018012720180302+000010200000100000N00000                                      13226N Y     YEP1SA                                                                                     X
45861        044801010230301023000075764502172200006NEWMANS COOKIE OS WFR VAN CRM     8 OZ3740037401544650030082341A2018042820180601+000010200000100000N00000                                      13226N N     YEP1SA                                                                                     X
45861        044801010230301023000075764502172200006NEWMANS COOKIE OS WFR VAN CRM     8 OZ3740037401849500030083311A2018072820180907+000010200000100000N00000                                      13226N N     YEP1SA                                                                                     X
45861        044801010250301025000003904701831000006C17 WALKERS SHRTBRD SCT DOG TN  7.8 OZ642006420200000002713434RN2017092320171229+000075200000100000N00000                                      16558N N     YREFL                                                                                      X
45861        044801010410301041000007349015216000050PROMISED LAND CHANUKAH CANDLE    44 CT6700067004731370027721341R2017102120171222+000038500000100000N00002                                      16486Y N     YEP1SA                                                                                     X
45861        044801011130301113000081216101067100012COCO LIBRE COCONUT WATER ORG      1 LT3560035607724200027719581A2017123020180202+000048000000100000N00000                                      22110N Y     YEP1SA                                                                                     X
45861        044801011130301113000081216101067100012COCO LIBRE COCONUT WATER ORG      1 LT3560035607724190027719571A2018022420180406+000048000000100000N00000                                      22110N Y     YEP1SA                                                                                     X
45861        044801011280301128000079921082502100012BIONATURE PASTA EGG PAPPARDELL  8.8 OZ372003720172716002925511QA2018012720180302+000015700000200010Y00000                                      11302N N     YQDASQ                                                                                     X
45861        044801011280301128000079921082502100012BIONATURE PASTA EGG PAPPARDELL  8.8 OZ3720037201727080029255111A2018012720180302+000036300000100000N00000                                      11302N Y     YEP1SA                                                                                     X
45861        044801011310301131000081216101157900012COCO LIBRE COC WTR SPRK CUCUMB   12 OZ3560035607724260027719621A2017112520180105+000020000000100000N00000                                      22110N Y     YEP1SA                                                                                     X
45861        044801011310301131000081216101157900012COCO LIBRE COC WTR SPRK CUCUMB   12 OZ3560035607724240027719611A2018012720180223+000020000000100000N00000                                      22110N Y     YEP1SA                                                                                     X
45861        044801011310301131000081216101157900012COCO LIBRE COC WTR SPRK CUCUMB   12 OZ3560035607724220027719591A2018022420180406+000020000000100000N00000                                      22110N Y     YEP1SA                                                                                     X
45861        044801013250301325000075764502140100006NEWMANS COOKIE OS VANILLA CRM    13 OZ374003740193713002960388DA2018012720180302+000019800000100000Y00000                                      13226N N     YDISPSQ                                                                                    X
45861        044801013250301325000075764502140100006NEWMANS COOKIE OS VANILLA CRM    13 OZ374003740193713002960388DA2018012720180302+000026300000100000Y00000                                      13226N N     YDISPSQ                                                                                    X
45861        044801013250301325000075764502140100006NEWMANS COOKIE OS VANILLA CRM    13 OZ3740037401465280029564071A2018012720180302+000018000000100000N00000                                      13226N Y     YEP1SA                                                                                     X
45861        044801013250301325000075764502140100006NEWMANS COOKIE OS VANILLA CRM    13 OZ3740037401529590030082331A2018042820180601+000018000000100000N00000                                      13226N Y     YEP1SA                                                                                     X
45861        044801013250301325000075764502140100006NEWMANS COOKIE OS VANILLA CRM    13 OZ3740037401851570030083321A2018072820180907+000018000000100000N00000                                      13226N N     YEP1SA                                                                                     X
45861        044801017000301700000008912525000200012ANCIENT HARV QUINOA SPAGHETTI     8 OZ3720037201430290027770981A2017123020180202+000031500000100000N00000                                      14363N Y     YEP1SA                                                                                     X
45861        044801017000301700000008912525000200012ANCIENT HARV QUINOA SPAGHETTI     8 OZ3720037201454810027771281A2018022420180406+000031500000100000N00000                                      14363N Y     YEP1SA                                                                                     X
45861        044801017000301700000008912525000200012ANCIENT HARV QUINOA SPAGHETTI     8 OZ3720037201425360029773901A2018042820180525+000031500000100000N00000                                      14363N Y     YEP1SA                                                                                     X
45861        044801017000301700000008912525000200012ANCIENT HARV QUINOA SPAGHETTI     8 OZ3720037201439990029773991A2018072820180824+000031500000100000N00000                                      14363N Y     YEP1SA                                                                                     X
45861        044801017000301700000008912525000200012ANCIENT HARV QUINOA SPAGHETTI     8 OZ3720037201445650029776251A2018092220181019+000031500000100000N00000                                      14363N Y     YEP1SA                                                                                     X
45861        044801017030301703000008912526000100012ANCIENT HARV QUINOA ROTELLE       8 OZ3720037201430290027770981A2017123020180202+000031500000100000N00000                                      14363N Y     YEP1SA                                                                                     X
45861        044801017030301703000008912526000100012ANCIENT HARV QUINOA ROTELLE       8 OZ3720037201454810027771281A2018022420180406+000031500000100000N00000                                      14363N Y     YEP1SA                                                                                     X
45861        044801017030301703000008912526000100012ANCIENT HARV QUINOA ROTELLE       8 OZ3720037201425360029773901A2018042820180525+000031500000100000N00000                                      14363N Y     YEP1SA                                                                                     X
45861        044801017030301703000008912526000100012ANCIENT HARV QUINOA ROTELLE       8 OZ3720037201439990029773991A2018072820180824+000031500000100000N00000                                      14363N Y     YEP1SA                                                                                     X
45861        044801017030301703000008912526000100012ANCIENT HARV QUINOA ROTELLE       8 OZ3720037201445650029776251A2018092220181019+000031500000100000N00000                                      14363N Y     YEP1SA                                                                                     X
45861        044801019000301900000007349012500300006YEHUDA MATZO 5LB (P)              5 LB6700067050372360029062101A2018011320180413+000030000000100000N00000                                      15972N Y     YEP1SA                                                                                     X
45861        044801019060301906000007341600014800012LUNDB RICE CAKE BROWN ORG       8.5 OZ3900039003231190027845951A2017123020180202+000039100000100000N00000                                      11880N Y     YEP1SA                                                                                     X
45861        044801019060301906000007341600014800012LUNDB RICE CAKE BROWN ORG       8.5 OZ3900039003276350027848731A2018033120180504+000039100000100000N00000                                      11880N Y     YEP1SA                                                                                     X
45861        044801019060301906000007341600014800012LUNDB RICE CAKE BROWN ORG       8.5 OZ3900039003535880029908431A2018052620180622+000039100000100000N00000                                      11880N Y     YEP1SA                                                                                     X
45861        044801019060301906000007341600014800012LUNDB RICE CAKE BROWN ORG       8.5 OZ3900039003540600029908731A2018092220181019+000039100000100000N00000                                      11880N Y     YEP1SA                                                                                     X
45861        044801019070301907000007341600015500012LUNDB RICE CAKE BROWN NS ORG    8.5 OZ3900039003231190027845951A2017123020180202+000039100000100000N00000                                      11880N Y     YEP1SA                                                                                     X
45861        044801019070301907000007341600015500012LUNDB RICE CAKE BROWN NS ORG    8.5 OZ3900039003276350027848731A2018033120180504+000039100000100000N00000                                      11880N Y     YEP1SA                                                                                     X
45861        044801019070301907000007341600015500012LUNDB RICE CAKE BROWN NS ORG    8.5 OZ3900039003535880029908431A2018052620180622+000039100000100000N00000                                      11880N Y     YEP1SA                                                                                     X
45861        044801019070301907000007341600015500012LUNDB RICE CAKE BROWN NS ORG    8.5 OZ3900039003540600029908731A2018092220181019+000039100000100000N00000                                      11880N Y     YEP1SA                                                                                     X
45861        044801019750301975000075764501630800006NEWMANS MINTS TIN WNTGRN       1.76 OZ390003900592598002960384DA2018012720180302+000008400000100000Y00000                                      13226N N     YDISPSQ                                                                                    X
45861        044801019750301975000075764501630800006NEWMANS MINTS TIN WNTGRN       1.76 OZ3900039005464500029564041A2018012720180302+000007800000100000N00000                                      13226N Y     YEP1SA                                                                                     X
45861        044801019750301975000075764501630800006NEWMANS MINTS TIN WNTGRN       1.76 OZ3900039005623770030082491A2018042820180601+000007800000100000N00000                                      13226N Y     YEP1SA                                                                                     X
45861        044801019790301979000075764501620900006NEWMANS MINTS TIN PPRMT        1.76 OZ390003900592598002960384DA2018012720180302+000008400000100000Y00000                                      13226N N     YDISPSQ                                                                                    X
45861        044801019790301979000075764501620900006NEWMANS MINTS TIN PPRMT        1.76 OZ3900039005464500029564041A2018012720180302+000007800000100000N00000                                      13226N Y     YEP1SA                                                                                     X
45861        044801019790301979000075764501620900006NEWMANS MINTS TIN PPRMT        1.76 OZ3900039005623770030082491A2018042820180601+000007800000100000N00000                                      13226N Y     YEP1SA                                                                                     X
45861        044801019800301980000075764501610000006NEWMANS MINTS TIN GINGER       1.76 OZ390003900592598002960384DA2018012720180302+000008400000100000Y00000                                      13226N N     YDISPSQ                                                                                    X
45861        044801019800301980000075764501610000006NEWMANS MINTS TIN GINGER       1.76 OZ3900039005464500029564041A2018012720180302+000007800000100000N00000                                      13226N Y     YEP1SA                                                                                     X
45861        044801019800301980000075764501610000006NEWMANS MINTS TIN GINGER       1.76 OZ3900039005623770030082491A2018042820180601+000007800000100000N00000                                      13226N Y     YEP1SA                                                                                     X
45861        044801019830301983000007349013180600006YEHUDA MATZO WHOLE WHEAT(P)   5/10.5OZ6700067050372360029062101A2018011320180413+000030000000100000N00000                                      15972N Y     YEP1SA                                                                                     X
45861        044801019940301994000075764501600100006NEWMANS MINTS TIN CINNAMON     1.76 OZ390003900592598002960384DA2018012720180302+000008400000100000Y00000                                      13226N N     YDISPSQ                                                                                    X
45861        044801019940301994000075764501600100006NEWMANS MINTS TIN CINNAMON     1.76 OZ3900039005464500029564041A2018012720180302+000007800000100000N00000                                      13226N Y     YEP1SA                                                                                     X
45861        044801019940301994000075764501600100006NEWMANS MINTS TIN CINNAMON     1.76 OZ3900039005623770030082491A2018042820180601+000007800000100000N00000                                      13226N Y     YEP1SA                                                                                     X
45861        044801020040302004000007349013187500012YEHUDA MATZO SQUARES GF        10.5 OZ6700067010731370027721341R2017102120171222+000050100000100000N00002                                      16486Y N     YEP1SA                                                                                     X
45861        044801021100302110000072225210070200012CLIF BAR APRICOT                2.4 OZ378003780107684002801560QA2018012720180302+000028800000200015Y00000                                      16887N N     YQDASQ                                                                                     X
45861        044801021100302110000072225210070200012CLIF BAR APRICOT                2.4 OZ3780037801076700028015601A2018012720180302+000014400000100000N00000                                      16887N Y     YEP1SA                                                                                     X
45861        044801022700302270000075764502144900006NEWMANS COOKIE OS MINT CREME     13 OZ374003740193713002960388DA2018012720180302+000019800000100000Y00000                                      13226N N     YDISPSQ                                                                                    X
45861        044801022700302270000075764502144900006NEWMANS COOKIE OS MINT CREME     13 OZ374003740193713002960388DA2018012720180302+000026300000100000Y00000                                      13226N N     YDISPSQ                                                                                    X
45861        044801022700302270000075764502144900006NEWMANS COOKIE OS MINT CREME     13 OZ3740037401465280029564071A2018012720180302+000018000000100000N00000                                      13226N Y     YEP1SA                                                                                     X
45861        044801022700302270000075764502144900006NEWMANS COOKIE OS MINT CREME     13 OZ3740037401529590030082331A2018042820180601+000018000000100000N00000                                      13226N Y     YEP1SA                                                                                     X
45861        044801022700302270000075764502144900006NEWMANS COOKIE OS MINT CREME     13 OZ3740037401851570030083321A2018072820180907+000018000000100000N00000                                      13226N N     YEP1SA                                                                                     X
45861        044801023320302332000075764501043600016NEWMANS CUP PNUT BTR MLK CHOC   1.2 OZ3900039005870580028586461A2017112520180105+000014400000100000N00000                                      13226N Y     YEP1SA                                                                                     X
45861        044801023320302332000075764501043600016NEWMANS CUP PNUT BTR MLK CHOC   1.2 OZ390003900589652002960364DA2018012720180302+000015200000100000Y00000                                      13226N N     YDISPSQ                                                                                    X
45861        044801023320302332000075764501043600016NEWMANS CUP PNUT BTR MLK CHOC   1.2 OZ3900039005457040029563931A2018012720180302+000014400000100000N00000                                      13226N Y     YEP1SA                                                                                     X
45861        044801023320302332000075764501043600016NEWMANS CUP PNUT BTR MLK CHOC   1.2 OZ3900039005547420030082391A2018042820180601+000014400000100000N00000                                      13226N N     YEP1SA                                                                                     X
45861        044801023320302332000075764501043600016NEWMANS CUP PNUT BTR MLK CHOC   1.2 OZ3900039005881660030083371A2018090120181005+000014400000100000N00000                                      13226N Y     YEP1SA                                                                                     X
45861        044801023750302375000074365912594500012PROMAX BAR ORIG DBL FDG BRWNIE  2.7 OZ3780037801149980028051951A2017123020180202+000014100000100000N00000                                      16924N Y     YEP1SA                                                                                     X
45861        044801023750302375000074365912594500012PROMAX BAR ORIG DBL FDG BRWNIE  2.7 OZ3780037801150760028052011A2018020320180302+000014100000100000N00000                                      16924N Y     YEP1SA                                                                                     X
45861        044801023750302375000074365912594500012PROMAX BAR ORIG DBL FDG BRWNIE  2.7 OZ3780037801151210028052031A2018033120180504+000014100000100000N00000                                      16924N Y     YEP1SA                                                                                     X
45861        044801024200302420000075764501044300016NEWMANS CUP PNUT BTR DRK CHOC   1.2 OZ3900039005870580028586461A2017112520180105+000014400000100000N00000                                      13226N Y     YEP1SA                                                                                     X
45861        044801024200302420000075764501044300016NEWMANS CUP PNUT BTR DRK CHOC   1.2 OZ390003900589652002960364DA2018012720180302+000015200000100000Y00000                                      13226N N     YDISPSQ                                                                                    X
45861        044801024200302420000075764501044300016NEWMANS CUP PNUT BTR DRK CHOC   1.2 OZ3900039005457040029563931A2018012720180302+000014400000100000N00000                                      13226N Y     YEP1SA                                                                                     X
45861        044801024200302420000075764501044300016NEWMANS CUP PNUT BTR DRK CHOC   1.2 OZ3900039005547420030082391A2018042820180601+000014400000100000N00000                                      13226N N     YEP1SA                                                                                     X
45861        044801024200302420000075764501044300016NEWMANS CUP PNUT BTR DRK CHOC   1.2 OZ3900039005881660030083371A2018090120181005+000014400000100000N00000                                      13226N Y     YEP1SA                                                                                     X
45861        044801024280302428000075764501045000016NEWMANS CUP PPRMNT DK CHOC      1.2 OZ3900039005870580028586461A2017112520180105+000014400000100000N00000                                      13226N Y     YEP1SA                                                                                     X
45861        044801024280302428000075764501045000016NEWMANS CUP PPRMNT DK CHOC      1.2 OZ390003900589652002960364DA2018012720180302+000015200000100000Y00000                                      13226N N     YDISPSQ                                                                                    X
45861        044801024280302428000075764501045000016NEWMANS CUP PPRMNT DK CHOC      1.2 OZ3900039005457040029563931A2018012720180302+000014400000100000N00000                                      13226N Y     YEP1SA                                                                                     X
45861        044801024280302428000075764501045000016NEWMANS CUP PPRMNT DK CHOC      1.2 OZ3900039005547420030082391A2018042820180601+000014400000100000N00000                                      13226N N     YEP1SA                                                                                     X
45861        044801024280302428000075764501045000016NEWMANS CUP PPRMNT DK CHOC      1.2 OZ3900039005881660030083371A2018090120181005+000014400000100000N00000                                      13226N Y     YEP1SA                                                                                     X
45861        044801024440302444000009370930410400003PAMELAS MIX BAKING & PNCAKE GF    4 LB3800038002542280029196571A2017123020180126+000041900000100000N00000                                      13339N Y     YEP1SA                                                                                     X
45861        044801024440302444000009370930410400003PAMELAS MIX BAKING & PNCAKE GF    4 LB3800038002751760029956781A2018082520180921+000041900000100000N00000                                      13339N Y     YEP1SA                                                                                     X
45861        044801025030302503000075365670120200010THINKTHIN BAR CRMY PNUT BTR   2.1   OZ3780037801243410027807211R2018012720180302+000016500000100000N00020                                      11373Y N     YEP1SA                                                                                     X
45861        044801025030302503000075365670120200010THINKTHIN BAR CRMY PNUT BTR   2.1   OZ3780037801931770029654281R2018042820180601+000001400000100000N00020                                      11373Y N     YEP1SA                                                                                     X
45861        044801025030302503000075365670120200010THINKTHIN BAR CRMY PNUT BTR   2.1   OZ3780037801933510029654311R2018062320180803+000016500000100000N00020                                      11373Y N     YEP1SA                                                                                     X
45861        044801025030302503000075365670120200010THINKTHIN BAR CRMY PNUT BTR   2.1   OZ3780037801949430029654341R2018092220181102+000016500000100000N00020                                      11373Y N     YEP1SA                                                                                     X
45861        044801025040302504000075365670121900010THINKTHIN BAR CHOC FUDGE      2.1   OZ3780037801243410027807211R2018012720180302+000016500000100000N00020                                      11373Y N     YEP1SA                                                                                     X
45861        044801025040302504000075365670121900010THINKTHIN BAR CHOC FUDGE      2.1   OZ3780037801931770029654281R2018042820180601+000001400000100000N00020                                      11373Y N     YEP1SA                                                                                     X
45861        044801025040302504000075365670121900010THINKTHIN BAR CHOC FUDGE      2.1   OZ3780037801933510029654311R2018062320180803+000016500000100000N00020                                      11373Y N     YEP1SA                                                                                     X
45861        044801025040302504000075365670121900010THINKTHIN BAR CHOC FUDGE      2.1   OZ3780037801949430029654341R2018092220181102+000016500000100000N00020                                      11373Y N     YEP1SA                                                                                     X
45861        044801025060302506000075365670126400010THINKTHIN BAR CHNKY PNUT BTR  2.1   OZ3780037801243410027807211R2018012720180302+000016500000100000N00020                                      11373Y N     YEP1SA                                                                                     X
45861        044801025060302506000075365670126400010THINKTHIN BAR CHNKY PNUT BTR  2.1   OZ3780037801931770029654281R2018042820180601+000001400000100000N00020                                      11373Y N     YEP1SA                                                                                     X
45861        044801025060302506000075365670126400010THINKTHIN BAR CHNKY PNUT BTR  2.1   OZ3780037801933510029654311R2018062320180803+000016500000100000N00020                                      11373Y N     YEP1SA                                                                                     X
45861        044801025060302506000075365670126400010THINKTHIN BAR CHNKY PNUT BTR  2.1   OZ3780037801949430029654341R2018092220181102+000016500000100000N00020                                      11373Y N     YEP1SA                                                                                     X
45861        044801025690302569000089445500025400012JUSTINS PB CUP DARK CHOC ORG    1.4 OZ3900039005952760027522051A2017112520180105+000019700000100000N00000                                      18740N Y     YEP1SA                                                                                     X
45861        044801025690302569000089445500025400012JUSTINS PB CUP DARK CHOC ORG    1.4 OZ3900039005962050027523901A2018012720180223+000019700000100000N00000                                      18740N Y     YEP1SA                                                                                     X
45861        044801025690302569000089445500025400012JUSTINS PB CUP DARK CHOC ORG    1.4 OZ3900039005962590027524331A2018022420180406+000019700000100000N00000                                      18740N Y     YEP1SA                                                                                     X
45861        044801025830302583000075365670921500010THINKTHIN BAR COOKIES & CREAM 2.1   OZ3780037801243410027807211R2018012720180302+000016500000100000N00020                                      11373Y N     YEP1SA                                                                                     X
45861        044801025830302583000075365670921500010THINKTHIN BAR COOKIES & CREAM 2.1   OZ3780037801931770029654281R2018042820180601+000001400000100000N00020                                      11373Y N     YEP1SA                                                                                     X
45861        044801025830302583000075365670921500010THINKTHIN BAR COOKIES & CREAM 2.1   OZ3780037801933510029654311R2018062320180803+000016500000100000N00020                                      11373Y N     YEP1SA                                                                                     X
45861        044801025830302583000075365670921500010THINKTHIN BAR COOKIES & CREAM 2.1   OZ3780037801949430029654341R2018092220181102+000016500000100000N00020                                      11373Y N     YEP1SA                                                                                     X
45861        044801025910302591000007245733102000006WALD FARM DRESSING THOU ISLAND   12 OZ3180031802028410027839361A2017123020180202+000019800000100000N00000                                      16573N Y     YEP1SA                                                                                     X
45861        044801025910302591000007245733102000006WALD FARM DRESSING THOU ISLAND   12 OZ3180031802034760027840871A2018033120180504+000019800000100000N00000                                      16573N Y     YEP1SA                                                                                     X
45861        044801025930302593000007245733104400006WALD FARM DRESSING RANCH         12 OZ3180031802028410027839361A2017123020180202+000019800000100000N00000                                      16573N Y     YEP1SA                                                                                     X
45861        044801025930302593000007245733104400006WALD FARM DRESSING RANCH         12 OZ3180031802034760027840871A2018033120180504+000019800000100000N00000                                      16573N Y     YEP1SA                                                                                     X
45861        044801025940302594000007245733105100006WALD FARM DRESSING HONEY DIJON   12 OZ3180031802028410027839361A2017123020180202+000019800000100000N00000                                      16573N Y     YEP1SA                                                                                     X
45861        044801025940302594000007245733105100006WALD FARM DRESSING HONEY DIJON   12 OZ3180031802034760027840871A2018033120180504+000019800000100000N00000                                      16573N Y     YEP1SA                                                                                     X
45861        044801025960302596000007245733107500006WALD FARM DRESSING CAESAR        12 OZ3180031802028410027839361A2017123020180202+000019800000100000N00000                                      16573N Y     YEP1SA                                                                                     X
45861        044801025960302596000007245733107500006WALD FARM DRESSING CAESAR        12 OZ3180031802034760027840871A2018033120180504+000019800000100000N00000                                      16573N Y     YEP1SA                                                                                     X
45861        044801026050302605000007245733113600006WALD FARM DRESSING RASPBERRY     12 OZ3180031802028410027839361A2017123020180202+000019800000100000N00000                                      16573N Y     YEP1SA                                                                                     X
45861        044801026050302605000007245733113600006WALD FARM DRESSING RASPBERRY     12 OZ3180031802034760027840871A2018033120180504+000019800000100000N00000                                      16573N Y     YEP1SA                                                                                     X
45861        044801026260302626000007245788066500006WALD FARM SYRUP PANCAKE          12 OZ3360033601028410027839361A2017123020180202+000019800000100000N00000                                      16573N Y     YEP1SA                                                                                     X
45861        044801026260302626000007245788066500006WALD FARM SYRUP PANCAKE          12 OZ3360033601034760027840871A2018033120180504+000019800000100000N00000                                      16573N Y     YEP1SA                                                                                     X
45861        044801026280302628000007245755011700006WALD FARM SAUCE BBQ ORIG         12 OZ3160031602028410027839361A2017123020180202+000019800000100000N00000                                      16573N Y     YEP1SA                                                                                     X
45861        044801026280302628000007245755011700006WALD FARM SAUCE BBQ ORIG         12 OZ3160031602034760027840871A2018033120180504+000019800000100000N00000                                      16573N Y     YEP1SA                                                                                     X
45861        044801026340302634000007270000738200024MANISCH LENTIL SOUP MIX           6 OZ6700067019664940027444791A2017102120171222+000046000000100000N00000                                      15674N Y     YEP1SA                                                                                     X
45861        044801026420302642000007270010442500024MANISCH SOUP MX HEARTY BEAN       6 OZ6700067019664940027444791A2017102120171222+000046000000100000N00000                                      15674N Y     YEP1SA                                                                                     X
45861        044801026450302645000007270010188200012MANISCH CHICKEN BROTH          10.5 OZ6700067019664940027444791A2017102120171222+000018900000100000N00000                                      15674N Y     YEP1SA                                                                                     X
45861        044801026490302649000007270010226100012MANISCH CHICKEN BROTH ASEPTIC    32 OZ6700067019664940027444791A2017102120171222+000038800000100000N00000                                      15674N Y     YEP1SA                                                                                     X
45861        044801026630302663000007270010227800012MANISCH RED SOD CHCKN BRTH ASP   32 OZ6700067019664940027444791A2017102120171222+000038800000100000N00000                                      15674N Y     YEP1SA                                                                                     X
45861        044801028150302815000089445500052000010JUSTINS HZLNUT BTR SQZ PK CHOC 1.15 OZ3840038401955180027522451A2017123020180202+000012000000100000N00000                                      18740N Y     YEP1SA                                                                                     X
45861        044801028150302815000089445500052000010JUSTINS HZLNUT BTR SQZ PK CHOC 1.15 OZ3840038401962490027524301A2018022420180406+000012000000100000N00000                                      18740N Y     YEP1SA                                                                                     X
45861        044801028240302824000063888200200500012FARMERS PUMPKIN ORG              15 OZ3680036801433250027851391A2017102820180105+000025400000100000N00000                                      12528N Y     YEP1SA                                                                                     X
45861        044801028240302824000063888200200500012FARMERS PUMPKIN ORG              15 OZ3680036801433430027851411A2018022420180406+000025400000100000N00000                                      12528N Y     YEP1SA                                                                                     X
45861        044801028240302824000063888200200500012FARMERS PUMPKIN ORG              15 OZ3680036801506150030102971A2018090120181102+000025400000100000N00000                                      12528N Y     YEP1SA                                                                                     X
45861        044801028410302841000063888200204300012FARMERS PUMPKIN PIE MIX ORG      15 OZ3680036801433250027851391A2017102820180105+000028800000100000N00000                                      12528N Y     YEP1SA                                                                                     X
45861        044801028410302841000063888200204300012FARMERS PUMPKIN PIE MIX ORG      15 OZ3680036801433430027851411A2018022420180406+000028800000100000N00000                                      12528N Y     YEP1SA                                                                                     X
45861        044801028410302841000063888200204300012FARMERS PUMPKIN PIE MIX ORG      15 OZ3680036801506150030102971A2018090120181102+000028800000100000N00000                                      12528N Y     YEP1SA                                                                                     X
45861        044801028430302843000063888200203600012FARMERS SWEET POTATO PUREE ORG   15 OZ3680036801433250027851391A2017102820180105+000024300000100000N00000                                      12528N Y     YEP1SA                                                                                     X
45861        044801028430302843000063888200203600012FARMERS SWEET POTATO PUREE ORG   15 OZ3680036801433430027851411A2018022420180406+000024300000100000N00000                                      12528N Y     YEP1SA                                                                                     X
45861        044801028430302843000063888200203600012FARMERS SWEET POTATO PUREE ORG   15 OZ3680036801506150030102971A2018090120181102+000024300000100000N00000                                      12528N Y     YEP1SA                                                                                     X
45861        044801028880302888000063888200210400012FARMERS BUTTERNUT SQUASH ORG     15 OZ3680036801433250027851391A2017102820180105+000024300000100000N00000                                      12528N Y     YEP1SA                                                                                     X
45861        044801028880302888000063888200210400012FARMERS BUTTERNUT SQUASH ORG     15 OZ3680036801433430027851411A2018022420180406+000024300000100000N00000                                      12528N Y     YEP1SA                                                                                     X
45861        044801028880302888000063888200210400012FARMERS BUTTERNUT SQUASH ORG     15 OZ3680036801506150030102971A2018090120181102+000024300000100000N00000                                      12528N Y     YEP1SA                                                                                     X
45861        044801029250302925000085518800301100010JUSTINS PNT BTR SQZ PK CLASSIC 1.15 OZ3840038401955140027522371A2017123020180202+000005000000100000N00000                                      18740N Y     YEP1SA                                                                                     X
45861        044801029250302925000085518800301100010JUSTINS PNT BTR SQZ PK CLASSIC 1.15 OZ3840038401962420027524261A2018022420180406+000005100000100000N00000                                      18740N Y     YEP1SA                                                                                     X
45861        044801029850302985000007468211842100012KNUDSEN JC SPARKLING GRAPE KOS 25.4 OZ3560035602307420027820501A2017110420180105+000044400000100000N00000                                      29405N Y     YEP1SA                                                                                     X
45861        044801029850302985000007468211842100012KNUDSEN JC SPARKLING GRAPE KOS 25.4 OZ3560035602712390027713271A2018033120180504+000036500000100000N00000                                      29405N Y     YEP1SA                                                                                     X
45861        044801031200303120000007245799022700006WALD FARM FRUIT SPREAD STRWBRY   12 OZ3380033801028410027839361A2017123020180202+000019800000100000N00000                                      16573N Y     YEP1SA                                                                                     X
45861        044801031200303120000007245799022700006WALD FARM FRUIT SPREAD STRWBRY   12 OZ3380033801034760027840871A2018033120180504+000019800000100000N00000                                      16573N Y     YEP1SA                                                                                     X
45861        044801031210303121000007245799055500006WALD FARM FRUIT SPREAD BLUBRRY   12 OZ3380033801028410027839361A2017123020180202+000019800000100000N00000                                      16573N Y     YEP1SA                                                                                     X
45861        044801031210303121000007245799055500006WALD FARM FRUIT SPREAD BLUBRRY   12 OZ3380033801034760027840871A2018033120180504+000019800000100000N00000                                      16573N Y     YEP1SA                                                                                     X
45861        044801031220303122000007245799033300006WALD FARM FRUIT SPREAD RASPBRY   12 OZ3380033801028410027839361A2017123020180202+000019800000100000N00000                                      16573N Y     YEP1SA                                                                                     X
45861        044801031220303122000007245799033300006WALD FARM FRUIT SPREAD RASPBRY   12 OZ3380033801034760027840871A2018033120180504+000019800000100000N00000                                      16573N Y     YEP1SA                                                                                     X
45861        044801031230303123000007245755033900006WALD FARM SAUCE BBQ THCK/SPCY    12 OZ3160031602028410027839361A2017123020180202+000019800000100000N00000                                      16573N Y     YEP1SA                                                                                     X
45861        044801031230303123000007245755033900006WALD FARM SAUCE BBQ THCK/SPCY    12 OZ3160031602034760027840871A2018033120180504+000019800000100000N00000                                      16573N Y     YEP1SA                                                                                     X
45861        044801031240303124000007245733103700006WALD FARM DRESSING BLUE CHEESE   12 OZ3180031802028410027839361A2017123020180202+000019800000100000N00000                                      16573N Y     YEP1SA                                                                                     X
45861        044801031240303124000007245733103700006WALD FARM DRESSING BLUE CHEESE   12 OZ3180031802034760027840871A2018033120180504+000019800000100000N00000                                      16573N Y     YEP1SA                                                                                     X
45861        044801031290303129000007245788055900006WALD FARM SYRUP CHOCOLATE        12 OZ3360033601028410027839361A2017123020180202+000019800000100000N00000                                      16573N Y     YEP1SA                                                                                     X
45861        044801031290303129000007245788055900006WALD FARM SYRUP CHOCOLATE        12 OZ3360033601034760027840871A2018033120180504+000019800000100000N00000                                      16573N Y     YEP1SA                                                                                     X
45861        044801031510303151000081247501226200012ALO WATER ENRICH POM/CRANBERRY 16.9 OZ655006550469198002924505QA2018012720180302+000007600000200010Y00000                                      16021N N     YQDASQ                                                                                     X
45861        044801031510303151000081247501226200012ALO WATER ENRICH POM/CRANBERRY 16.9 OZ6550065504691970029245051A2018012720180302+000018500000100000N00000                                      16021N Y     YEP1SA                                                                                     X
45861        044801034360303436000003997800285300004BOBS RM GRANOLA HONEY OAT        12 OZ3760037605931170029811531A2018012720180302+000013700000100000N00000                                      15838N Y     YEP1SA                                                                                     X
45861        044803034450303445000007582000000400006SPIKE SEASONING               3     OZ3880038803530180027892181A2018012720180302+000014000000100000N00000                                      23797N Y     YEP1SA                                                                                     X
45861        044803034460303446000007582000001100006SPIKE VEGE SAL SEASNING       4     OZ3800038003530180027892181A2018012720180302+000014000000100000N00000                                      23797N Y     YEP1SA                                                                                     X
45861        044803034470303447000007582000007300006SPIKE SALT FREE               1.9   OZ3880038803530180027892181A2018012720180302+000014000000100000N00000                                      23797N Y     YEP1SA                                                                                     X
45861        044801034730303473000075764500200400012NEWMANS PRETZEL STICK         8     OZ3900039009871190028586511A2017112520180105+000021600000100000N00000                                      13226N Y     YEP1SA                                                                                     X
45861        044801034730303473000075764500200400012NEWMANS PRETZEL STICK         8     OZ390003900995046002960409DA2018012720180302+000025000000100000Y00000                                      13226N N     YDISPSQ                                                                                    X
45861        044801034730303473000075764500200400012NEWMANS PRETZEL STICK         8     OZ390003900995046002960409DA2018012720180302+000033500000100000Y00000                                      13226N N     YDISPSQ                                                                                    X
45861        044801034730303473000075764500200400012NEWMANS PRETZEL STICK         8     OZ3900039009465520029564111A2018012720180302+000021600000100000N00000                                      13226N Y     YEP1SA                                                                                     X
45861        044801034730303473000075764500200400012NEWMANS PRETZEL STICK         8     OZ3900039009678280030082591A2018042820180601+000021600000100000N00000                                      13226N N     YEP1SA                                                                                     X
45861        044801034730303473000075764500200400012NEWMANS PRETZEL STICK         8     OZ3900039009403280030084161A2018090120181005+000021600000100000N00000                                      13226N N     YEP1SA                                                                                     X
45861        044801035200303520000085335800045700012CRNCHMASTR CKR RICE TST SEAS    3.5 OZ3900039011371200028155691A2017123020180202+000025900000100000N00000                                      12897N Y     YEP1SA                                                                                     X
45861        044801035200303520000085335800045700012CRNCHMASTR CKR RICE TST SEAS    3.5 OZ3900039011418980028156031A2018022420180406+000025900000100000N00000                                      12897N Y     YEP1SA                                                                                     X
45861        044801035780303578000075764500020800012NEWMANS POPCORN MICRO BTR       9.9 OZ3900039007871120028586501A2017112520180105+000022800000100000N00000                                      13226N Y     YEP1SA                                                                                     X
45861        044801035780303578000075764500020800012NEWMANS POPCORN MICRO BTR       9.9 OZ390003900794536002960401DA2018012720180302+000025900000100000Y00000                                      13226N N     YDISPSQ                                                                                    X
45861        044801035780303578000075764500020800012NEWMANS POPCORN MICRO BTR       9.9 OZ3900039007465500029564091A2018012720180302+000022800000100000N00000                                      13226N Y     YEP1SA                                                                                     X
45861        044801035780303578000075764500020800012NEWMANS POPCORN MICRO BTR       9.9 OZ3900039007654770030082551A2018042820180601+000022800000100000N00000                                      13226N Y     YEP1SA                                                                                     X
45861        044801035780303578000075764500020800012NEWMANS POPCORN MICRO BTR       9.9 OZ3900039007402580030084141A2018090120181005+000022800000100000N00000                                      13226N Y     YEP1SA                                                                                     X
45861        044801035910303591000075764500021500012NEWMANS POPCORN MCRO LT BTR     8.4 OZ3900039007871120028586501A2017112520180105+000022800000100000N00000                                      13226N Y     YEP1SA                                                                                     X
45861        044801035910303591000075764500021500012NEWMANS POPCORN MCRO LT BTR     8.4 OZ390003900794536002960401DA2018012720180302+000025900000100000Y00000                                      13226N N     YDISPSQ                                                                                    X
45861        044801035910303591000075764500021500012NEWMANS POPCORN MCRO LT BTR     8.4 OZ3900039007465500029564091A2018012720180302+000022800000100000N00000                                      13226N Y     YEP1SA                                                                                     X
45861        044801035910303591000075764500021500012NEWMANS POPCORN MCRO LT BTR     8.4 OZ3900039007654770030082551A2018042820180601+000022800000100000N00000                                      13226N Y     YEP1SA                                                                                     X
45861        044801035910303591000075764500021500012NEWMANS POPCORN MCRO LT BTR     8.4 OZ3900039007402580030084141A2018090120181005+000022800000100000N00000                                      13226N Y     YEP1SA                                                                                     X
45861        044801035930303593000004608423033900006BLACK JEWELL PCORN MICRO NAT   10.5 OZ658006580400000002937052RN2017123020180202+000020500000100000N00000                                      13644N N     YREFL                                                                                      X
45861        044801035930303593000004608423033900006BLACK JEWELL PCORN MICRO NAT   10.5 OZ658006580400000002937053RN2018022420180406+000020500000100000N00000                                      13644N N     YREFL                                                                                      X
45861        044801035930303593000004608423033900006BLACK JEWELL PCORN MICRO NAT   10.5 OZ658006580400000002937054RN2018042820180601+000020500000100000N00000                                      13644N N     YREFL                                                                                      X
45861        044801035930303593000004608423033900006BLACK JEWELL PCORN MICRO NAT   10.5 OZ658006580400000002937055RN2018063020180803+000020500000100000N00000                                      13644N N     YREFL                                                                                      X
45861        044801035930303593000004608423033900006BLACK JEWELL PCORN MICRO NAT   10.5 OZ658006580400000002937056RN2018090120181005+000020500000100000N00000                                      13644N N     YREFL                                                                                      X
45861        044801035930303593000004608423033900006BLACK JEWELL PCORN MICRO NAT   10.5 OZ658006580400000002937057RN2018102720181130+000020500000100000N00000                                      13644N N     YREFL                                                                                      X
45861        044801035960303596000004608423034600006BLACK JEWELL PCORN MICRO BTR   10.5 OZ658006580400000002937052RN2017123020180202+000020500000100000N00000                                      13644N N     YREFL                                                                                      X
45861        044801035960303596000004608423034600006BLACK JEWELL PCORN MICRO BTR   10.5 OZ658006580400000002937053RN2018022420180406+000020500000100000N00000                                      13644N N     YREFL                                                                                      X
45861        044801035960303596000004608423034600006BLACK JEWELL PCORN MICRO BTR   10.5 OZ658006580400000002937054RN2018042820180601+000020500000100000N00000                                      13644N N     YREFL                                                                                      X
45861        044801035960303596000004608423034600006BLACK JEWELL PCORN MICRO BTR   10.5 OZ658006580400000002937055RN2018063020180803+000020500000100000N00000                                      13644N N     YREFL                                                                                      X
45861        044801035960303596000004608423034600006BLACK JEWELL PCORN MICRO BTR   10.5 OZ658006580400000002937056RN2018090120181005+000020500000100000N00000                                      13644N N     YREFL                                                                                      X
45861        044801035960303596000004608423034600006BLACK JEWELL PCORN MICRO BTR   10.5 OZ658006580400000002937057RN2018102720181130+000020500000100000N00000                                      13644N N     YREFL                                                                                      X
45861        044801036050303605000075764500022200012NEWMANS POPCORN MCROPLAIN       8.4 OZ3900039007871120028586501A2017112520180105+000022800000100000N00000                                      13226N Y     YEP1SA                                                                                     X
45861        044801036050303605000075764500022200012NEWMANS POPCORN MCROPLAIN       8.4 OZ390003900794536002960401DA2018012720180302+000025900000100000Y00000                                      13226N N     YDISPSQ                                                                                    X
45861        044801036050303605000075764500022200012NEWMANS POPCORN MCROPLAIN       8.4 OZ3900039007465500029564091A2018012720180302+000022800000100000N00000                                      13226N Y     YEP1SA                                                                                     X
45861        044801036050303605000075764500022200012NEWMANS POPCORN MCROPLAIN       8.4 OZ3900039007654770030082551A2018042820180601+000022800000100000N00000                                      13226N Y     YEP1SA                                                                                     X
45861        044801036050303605000075764500022200012NEWMANS POPCORN MCROPLAIN       8.4 OZ3900039007402580030084141A2018090120181005+000022800000100000N00000                                      13226N Y     YEP1SA                                                                                     X
45861        044801036310303631000072822901450800012TERRA CHIPS EXOTIC VEG ORIG       5 OZ3900039001707600027893231R2018022420180406+000025300000100000N00003                                      12604Y N     YEP1SA                                                                                     X
45861        044801036310303631000072822901450800012TERRA CHIPS EXOTIC VEG ORIG       5 OZ3900039001761670029781981A2018052620180706+000038000000100000N00000                                      12604N Y     YEP1SA                                                                                     X
45861        044801036310303631000072822901450800012TERRA CHIPS EXOTIC VEG ORIG       5 OZ3900039001646400030079221A2018090120181005+000038000000100000N00000                                      12604N Y     YEP1SA                                                                                     X
45861        044801036650303665000003997800188700004BOBS RM GRANOLA CINN RAISIN      12 OZ3760037605931170029811531A2018012720180302+000013700000100000N00000                                      15838N Y     YEP1SA                                                                                     X
45861        044801036920303692000072225218002500018Z FRUIT MIXED BERRY ORG SNGL     .7 OZ355003551335586002801594QA2018012720180302+000019800000200002Y00000                                      16887N N     YQDASQ                                                                                     X
45861        044801036920303692000072225218002500018Z FRUIT MIXED BERRY ORG SNGL     .7 OZ3550035513331070028015941A2018012720180302+000014400000100000N00000                                      16887N Y     YEP1SA                                                                                     X
45861        044801037420303742000085518800397400006JUSTINS MINI D/C P/B CUP SU BG  4.7 OZ3900039005953100027522101A2017112520180105+000030000000100000N00000                                      18740N Y     YEP1SA                                                                                     X
45861        044801037420303742000085518800397400006JUSTINS MINI D/C P/B CUP SU BG  4.7 OZ3900039005962070027523931A2018012720180223+000030000000100000N00000                                      18740N Y     YEP1SA                                                                                     X
45861        044801037420303742000085518800397400006JUSTINS MINI D/C P/B CUP SU BG  4.7 OZ3900039005962680027524401A2018022420180406+000030000000100000N00000                                      18740N Y     YEP1SA                                                                                     X
45861        044801037450303745000077000900112300012IF YOU CARE COFFEE FLTR NO 2    100 CT399003995000000002788054RN2018012720180223+000024000000100000N00000                                      12509N N     YREFL                                                                                      X
45861        044801037450303745000077000900112300012IF YOU CARE COFFEE FLTR NO 2    100 CT399003995000000002788056RN2018033120180427+000024000000100000N00000                                      12509N N     YREFL                                                                                      X
45861        044801037450303745000077000900112300012IF YOU CARE COFFEE FLTR NO 2    100 CT399003995000000002989468RN2018082520180921+000024000000100000N00000                                      12509N N     YREFL                                                                                      X
45861        044801037540303754000077000900114700012IF YOU CARE COFFEE FLTR NO 4    100 CT399003995000000002788054RN2018012720180223+000024000000100000N00000                                      12509N N     YREFL                                                                                      X
45861        044801037540303754000077000900114700012IF YOU CARE COFFEE FLTR NO 4    100 CT399003995000000002788056RN2018033120180427+000024000000100000N00000                                      12509N N     YREFL                                                                                      X
45861        044801037540303754000077000900114700012IF YOU CARE COFFEE FLTR NO 4    100 CT399003995000000002989468RN2018082520180921+000024000000100000N00000                                      12509N N     YREFL                                                                                      X
45861        044801037740303774000071157510200500012SP EDAMAME DRY RSTD LS        4     OZ3900039006900770029535071A2018012720180302+000018400000100000N00000                                      19434N Y     YEP1SA                                                                                     X
45861        044801037740303774000071157510200500012SP EDAMAME DRY RSTD LS        4     OZ3900039006900620029535061A2018042820180601+000018400000100000N00000                                      19434N Y     YEP1SA                                                                                     X
45861        044801037740303774000071157510200500012SP EDAMAME DRY RSTD LS        4     OZ3900039006494410029717541A2018090120181005+000018400000100000N00000                                      19434N Y     YEP1SA                                                                                     X
45861        044801037990303799000075764500880800012NEWMANS PRETZELS THIN STICKS      7 OZ3900039009871190028586511A2017112520180105+000021600000100000N00000                                      13226N Y     YEP1SA                                                                                     X
45861        044801037990303799000075764500880800012NEWMANS PRETZELS THIN STICKS      7 OZ390003900995046002960409DA2018012720180302+000025000000100000Y00000                                      13226N N     YDISPSQ                                                                                    X
45861        044801037990303799000075764500880800012NEWMANS PRETZELS THIN STICKS      7 OZ390003900995046002960409DA2018012720180302+000033500000100000Y00000                                      13226N N     YDISPSQ                                                                                    X
45861        044801037990303799000075764500880800012NEWMANS PRETZELS THIN STICKS      7 OZ3900039009465520029564111A2018012720180302+000021600000100000N00000                                      13226N Y     YEP1SA                                                                                     X
45861        044801037990303799000075764500880800012NEWMANS PRETZELS THIN STICKS      7 OZ3900039009678280030082591A2018042820180601+000021600000100000N00000                                      13226N N     YEP1SA                                                                                     X
45861        044801037990303799000075764500880800012NEWMANS PRETZELS THIN STICKS      7 OZ3900039009403280030084161A2018090120181005+000021600000100000N00000                                      13226N N     YEP1SA                                                                                     X
45861        044806233490303880000007128515502000008STONE BUHR FLR UNBLCH WHTE BRD    5 LB380003800133515002965519QA2018022420180406+000018000000200005Y00000                                      19617N N     YQDASQ                                                                                     X
45861        044806233490303880000007128515502000008STONE BUHR FLR UNBLCH WHTE BRD    5 LB3800038001334850029655191A2018022420180406+000040000000100000N00000                                      19617N Y     YEP1SA                                                                                     X
45861        044806233490303880000007128515502000008STONE BUHR FLR UNBLCH WHTE BRD    5 LB3800038001337830029655261A2018063020180803+000040000000100000N00000                                      19617N Y     YEP1SA                                                                                     X
45861        044806233490303880000007128515502000008STONE BUHR FLR UNBLCH WHTE BRD    5 LB380003800133688002965524QA2018102720181130+000018000000200005Y00000                                      19617N N     YQDASQ                                                                                     X
45861        044806233490303880000007128515502000008STONE BUHR FLR UNBLCH WHTE BRD    5 LB3800038001336790029655241A2018102720181130+000040000000100000N00000                                      19617N Y     YEP1SA                                                                                     X
45861        044806233490303880000007128515502000008STONE BUHR FLR UNBLCH WHTE BRD    5 LB380003800133757002965525QA2018120120190104+000018000000200005Y00000                                      19617N N     YQDASQ                                                                                     X
45861        044806233490303880000007128515502000008STONE BUHR FLR UNBLCH WHTE BRD    5 LB3800038001337120029655251A2018120120190104+000040000000100000N00000                                      19617N Y     YEP1SA                                                                                     X
45861        044801039040303904000075764500830300012NEWMANS PRETZELS RODS         8.0   OZ3900039009871190028586511A2017112520180105+000021600000100000N00000                                      13226N Y     YEP1SA                                                                                     X
45861        044801039040303904000075764500830300012NEWMANS PRETZELS RODS         8.0   OZ390003900995046002960409DA2018012720180302+000025000000100000Y00000                                      13226N N     YDISPSQ                                                                                    X
45861        044801039040303904000075764500830300012NEWMANS PRETZELS RODS         8.0   OZ390003900995046002960409DA2018012720180302+000033500000100000Y00000                                      13226N N     YDISPSQ                                                                                    X
45861        044801039040303904000075764500830300012NEWMANS PRETZELS RODS         8.0   OZ3900039009465520029564111A2018012720180302+000021600000100000N00000                                      13226N Y     YEP1SA                                                                                     X
45861        044801039040303904000075764500830300012NEWMANS PRETZELS RODS         8.0   OZ3900039009678280030082591A2018042820180601+000021600000100000N00000                                      13226N N     YEP1SA                                                                                     X
45861        044801039040303904000075764500830300012NEWMANS PRETZELS RODS         8.0   OZ3900039009403280030084161A2018090120181005+000021600000100000N00000                                      13226N N     YEP1SA                                                                                     X
45861        044801039060303906000077000901048400024IF YOU CARE BAKING CUPS LARGE    60 CT380003801000000002788015RN2017112520171222+000024000000100000N00000                                      12509N N     YREFL                                                                                      X
45861        044801039060303906000077000901048400024IF YOU CARE BAKING CUPS LARGE    60 CT380003801000000002788022RN2018012720180223+000024000000100000N00000                                      12509N N     YREFL                                                                                      X
45861        044801039060303906000077000901048400024IF YOU CARE BAKING CUPS LARGE    60 CT380003801000000002788027RN2018033120180427+000024000000100000N00000                                      12509N N     YREFL                                                                                      X
45861        044801039560303956000007101208005200012KING ARTHR FLOUR A/PURPOSE ORG    2 LB3800038001756460028071511A2017102820180105+000036000000100000N00000                                      14073N Y     YEP1SA                                                                                     X
45861        044801039610303961000007101200004300006KING ARTHR FLOUR CAKE UNBLEACH    2 LB380003800192681002817949QA2017102820180105+000010000000200020Y00000                                      14073N N     YQDASQ                                                                                     X
45861        044801039610303961000007101200004300006KING ARTHR FLOUR CAKE UNBLEACH    2 LB380003800192681002817949QA2017102820180105+000020000000200040Y00000                                      14073N N     YQDASQ                                                                                     X
45861        044801039610303961000007101200004300006KING ARTHR FLOUR CAKE UNBLEACH    2 LB3800038001924100028179491A2017102820180105+000021000000100000N00000                                      14073N Y     YEP1SA                                                                                     X
45861        044801039690303969000007341600013100012LUNDB RICE CAKE TAMRI SEAW ORG    9 OZ3900039003231190027845951A2017123020180202+000039100000100000N00000                                      11880N Y     YEP1SA                                                                                     X
45861        044801039690303969000007341600013100012LUNDB RICE CAKE TAMRI SEAW ORG    9 OZ3900039003276350027848731A2018033120180504+000039100000100000N00000                                      11880N Y     YEP1SA                                                                                     X
45861        044801039690303969000007341600013100012LUNDB RICE CAKE TAMRI SEAW ORG    9 OZ3900039003535880029908431A2018052620180622+000039100000100000N00000                                      11880N Y     YEP1SA                                                                                     X
45861        044801039690303969000007341600013100012LUNDB RICE CAKE TAMRI SEAW ORG    9 OZ3900039003540600029908731A2018092220181019+000039100000100000N00000                                      11880N Y     YEP1SA                                                                                     X
45861        044801040040304004000007061700164600006BARBARAS SNACKIMALS OATMEAL WF  7.5 OZ3740037401635440027697871A2018022420180406+000021600000100000N00000                                      12161N Y     YEP1SA                                                                                     X
45861        044801040040304004000007061700164600006BARBARAS SNACKIMALS OATMEAL WF  7.5 OZ3740037401914280029981121A2018052620180706+000021600000100000N00000                                      12161N Y     YEP1SA                                                                                     X
45861        044801040040304004000007061700164600006BARBARAS SNACKIMALS OATMEAL WF  7.5 OZ3740037401919630029981151A2018090120181005+000021600000100000N00000                                      12161N Y     YEP1SA                                                                                     X
45861        044801040060304006000007061700163900006BARB SNACKIMALS CHOC CHIP       7.5 OZ3740037401635440027697871A2018022420180406+000021600000100000N00000                                      12161N Y     YEP1SA                                                                                     X
45861        044801040060304006000007061700163900006BARB SNACKIMALS CHOC CHIP       7.5 OZ3740037401914280029981121A2018052620180706+000021600000100000N00000                                      12161N Y     YEP1SA                                                                                     X
45861        044801040060304006000007061700163900006BARB SNACKIMALS CHOC CHIP       7.5 OZ3740037401919630029981151A2018090120181005+000021600000100000N00000                                      12161N Y     YEP1SA                                                                                     X
45861        044801040120304012000007061700079300012BARB CHEESE PUFFS BAKES         5.5 OZ3900039001617000027696971A2017123020180202+000031100000100000N00000                                      12161N Y     YEP1SA                                                                                     X
45861        044801040120304012000007061700079300012BARB CHEESE PUFFS BAKES         5.5 OZ3900039001618150027697091A2018022420180406+000031100000100000N00000                                      12161N Y     YEP1SA                                                                                     X
45861        044801040120304012000007061700079300012BARB CHEESE PUFFS BAKES         5.5 OZ3900039001920410029981171A2018052620180706+000031200000100000N00000                                      12161N Y     YEP1SA                                                                                     X
45861        044801040120304012000007061700079300012BARB CHEESE PUFFS BAKES         5.5 OZ3900039001916520029981131A2018092920181102+000031200000100000N00000                                      12161N Y     YEP1SA                                                                                     X
45861        044801040280304028000007061700156100018BARBARAS SNACKIMALS CHOC CHIP 2.125 OZ3740037401635440027697871A2018022420180406+000019800000100000N00000                                      12161N Y     YEP1SA                                                                                     X
45861        044801040280304028000007061700156100018BARBARAS SNACKIMALS CHOC CHIP 2.125 OZ3740037401914280029981121A2018052620180706+000019800000100000N00000                                      12161N Y     YEP1SA                                                                                     X
45861        044801040280304028000007061700156100018BARBARAS SNACKIMALS CHOC CHIP 2.125 OZ3740037401919630029981151A2018090120181005+000019800000100000N00000                                      12161N Y     YEP1SA                                                                                     X
45861        044801040300304030000088428404010100012NEWMANS OWN MIN RSN BAG ORG   14/.5 OZ355003550700000002870219RN2018012720180302+000040600000100000N00000                                      12069N N     YREFL                                                                                      X
45861        044801040300304030000088428404010100012NEWMANS OWN MIN RSN BAG ORG   14/.5 OZ355003550700000002870225RN2018033120180504+000040600000100000N00000                                      12069N N     YREFL                                                                                      X
45861        044801040300304030000088428404010100012NEWMANS OWN MIN RSN BAG ORG   14/.5 OZ355003550700000002925513RN2018072820180907+000040600000100000N00000                                      12069N N     YREFL                                                                                      X
45861        044801040300304030000088428404010100012NEWMANS OWN MIN RSN BAG ORG   14/.5 OZ355003550700000002925531RN2018112420190104+000040600000100000N00000                                      12069N N     YREFL                                                                                      X
45861        044801040330304033000088428404020000012NEWMANS OWN FRT RSN RESEAL ORG    6 OZ355003550700000002870219RN2018012720180302+000032700000100000N00000                                      12069N N     YREFL                                                                                      X
45861        044801040330304033000088428404020000012NEWMANS OWN FRT RSN RESEAL ORG    6 OZ355003550700000002925496RN2018062320180803+000032700000100000N00000                                      12069N N     YREFL                                                                                      X
45861        044801040330304033000088428404020000012NEWMANS OWN FRT RSN RESEAL ORG    6 OZ355003550700000002925515RN2018082520180928+000032700000100000N00000                                      12069N N     YREFL                                                                                      X
45861        044801040340304034000088428404120700012NEWMANS OWN FRT PRN RESEAL ORG    6 OZ355003550700000002870219RN2018012720180302+000041700000100000N00000                                      12069N N     YREFL                                                                                      X
45861        044801040340304034000088428404120700012NEWMANS OWN FRT PRN RESEAL ORG    6 OZ355003550700000002925496RN2018062320180803+000041700000100000N00000                                      12069N N     YREFL                                                                                      X
45861        044801040340304034000088428404120700012NEWMANS OWN FRT PRN RESEAL ORG    6 OZ355003550700000002925515RN2018082520180928+000041700000100000N00000                                      12069N N     YREFL                                                                                      X
45861        044801040480304048000007061700155400018BARB SNACKIMALS COOKIE VANILLA2.125 OZ3740037401635440027697871A2018022420180406+000019800000100000N00000                                      12161N Y     YEP1SA                                                                                     X
45861        044801040480304048000007061700155400018BARB SNACKIMALS COOKIE VANILLA2.125 OZ3740037401914280029981121A2018052620180706+000019800000100000N00000                                      12161N Y     YEP1SA                                                                                     X
45861        044801040480304048000007061700155400018BARB SNACKIMALS COOKIE VANILLA2.125 OZ3740037401919630029981151A2018090120181005+000019800000100000N00000                                      12161N Y     YEP1SA                                                                                     X
45861        044801040510304051000007061700162200006BARBARAS SNACKIMALS VANILLA     7.5 OZ3740037401635440027697871A2018022420180406+000021600000100000N00000                                      12161N Y     YEP1SA                                                                                     X
45861        044801040510304051000007061700162200006BARBARAS SNACKIMALS VANILLA     7.5 OZ3740037401914280029981121A2018052620180706+000021600000100000N00000                                      12161N Y     YEP1SA                                                                                     X
45861        044801040510304051000007061700162200006BARBARAS SNACKIMALS VANILLA     7.5 OZ3740037401919630029981151A2018090120181005+000021600000100000N00000                                      12161N Y     YEP1SA                                                                                     X
45861        044801040550304055000075764502160900006NEWMANS COOKIE OS VANILLA CRM     8 OZ374003740193729002960392DA2018012720180302+000011800000100000Y00000                                      13226N N     YDISPSQ                                                                                    X
45861        044801040550304055000075764502160900006NEWMANS COOKIE OS VANILLA CRM     8 OZ374003740193729002960392DA2018012720180302+000015600000100000Y00000                                      13226N N     YDISPSQ                                                                                    X
45861        044801040550304055000075764502160900006NEWMANS COOKIE OS VANILLA CRM     8 OZ3740037401953140029563581A2018012720180302+000010200000100000N00000                                      13226N Y     YEP1SA                                                                                     X
45861        044801040550304055000075764502160900006NEWMANS COOKIE OS VANILLA CRM     8 OZ3740037401544650030082341A2018042820180601+000010200000100000N00000                                      13226N N     YEP1SA                                                                                     X
45861        044801040550304055000075764502160900006NEWMANS COOKIE OS VANILLA CRM     8 OZ3740037401849500030083311A2018072820180907+000010200000100000N00000                                      13226N N     YEP1SA                                                                                     X
45861        044801040580304058000088428404030900012NEWMANS OWN RAISIN MINI BX ORG  6/1 OZ355003550700000002745944RN2017112520180105+000043200000100000N00000                                      12069N N     YREFL                                                                                      X
45861        044801040580304058000088428404030900012NEWMANS OWN RAISIN MINI BX ORG  6/1 OZ355003550700000002870219RN2018012720180302+000043200000100000N00000                                      12069N N     YREFL                                                                                      X
45861        044801040580304058000088428404030900012NEWMANS OWN RAISIN MINI BX ORG  6/1 OZ355003550700000002870225RN2018033120180504+000043200000100000N00000                                      12069N N     YREFL                                                                                      X
45861        044801040580304058000088428404030900012NEWMANS OWN RAISIN MINI BX ORG  6/1 OZ355003550700000002925513RN2018072820180907+000043200000100000N00000                                      12069N N     YREFL                                                                                      X
45861        044801040580304058000088428404030900012NEWMANS OWN RAISIN MINI BX ORG  6/1 OZ355003550700000002925531RN2018112420190104+000043200000100000N00000                                      12069N N     YREFL                                                                                      X
45861        044801040860304086000007433347428900012ARROWHD CEREAL PUFFED WHEAT       6 OZ3760037601731080029165051A2018012720180302+000022100000100000N00000                                      12604N Y     YEP1SA                                                                                     X
45861        044801040950304095000088428404025500012NEWMANS OWN FRT RSN CANSTR ORG   15 OZ355003550700000002842239RN2017102820180105+000062000000100000N00000                                      12069N N     YREFL                                                                                      X
45861        044801040950304095000088428404025500012NEWMANS OWN FRT RSN CANSTR ORG   15 OZ355003550700000002870225RN2018033120180504+000062000000100000N00000                                      12069N N     YREFL                                                                                      X
45861        044801040950304095000088428404025500012NEWMANS OWN FRT RSN CANSTR ORG   15 OZ355003550700000002925513RN2018072820180907+000062000000100000N00000                                      12069N N     YREFL                                                                                      X
45861        044801040950304095000088428404025500012NEWMANS OWN FRT RSN CANSTR ORG   15 OZ355003550700000002925519RN2018102720181123+000062000000100000N00000                                      12069N N     YREFL                                                                                      X
45861        044801040950304095000088428404025500012NEWMANS OWN FRT RSN CANSTR ORG   15 OZ355003550700000002925524RN2018112420190104+000062000000100000N00000                                      12069N N     YREFL                                                                                      X
45861        044801040960304096000007061700075500012BARB CHEESE PUFFS JALAPENO      7.0 OZ3900039001617000027696971A2017123020180202+000031100000100000N00000                                      12161N Y     YEP1SA                                                                                     X
45861        044801040960304096000007061700075500012BARB CHEESE PUFFS JALAPENO      7.0 OZ3900039001618150027697091A2018022420180406+000031100000100000N00000                                      12161N Y     YEP1SA                                                                                     X
45861        044801040960304096000007061700075500012BARB CHEESE PUFFS JALAPENO      7.0 OZ3900039001920410029981171A2018052620180706+000031200000100000N00000                                      12161N Y     YEP1SA                                                                                     X
45861        044801040960304096000007061700075500012BARB CHEESE PUFFS JALAPENO      7.0 OZ3900039001916520029981131A2018092920181102+000031200000100000N00000                                      12161N Y     YEP1SA                                                                                     X
45861        044801041000304100000088428404220400012NEWMANS OWN FRT CRBR RESEA ORG    4 OZ355003550700000002870219RN2018012720180302+000038800000100000N00000                                      12069N N     YREFL                                                                                      X
45861        044801041000304100000088428404220400012NEWMANS OWN FRT CRBR RESEA ORG    4 OZ355003550700000002870225RN2018033120180504+000038800000100000N00000                                      12069N N     YREFL                                                                                      X
45861        044801041000304100000088428404220400012NEWMANS OWN FRT CRBR RESEA ORG    4 OZ355003550700000002925496RN2018062320180803+000038800000100000N00000                                      12069N N     YREFL                                                                                      X
45861        044801041000304100000088428404220400012NEWMANS OWN FRT CRBR RESEA ORG    4 OZ355003550700000002925515RN2018082520180928+000038800000100000N00000                                      12069N N     YREFL                                                                                      X
